{
  "_format": "hh-sol-artifact-1",
  "contractName": "ACoin",
  "sourceName": "contracts/ACoin.sol",
  "abi": [
    {
      "inputs": [],
      "stateMutability": "nonpayable",
      "type": "constructor"
    },
    {
      "anonymous": false,
      "inputs": [
        {
          "indexed": true,
          "internalType": "address",
          "name": "owner",
          "type": "address"
        },
        {
          "indexed": true,
          "internalType": "address",
          "name": "spender",
          "type": "address"
        },
        {
          "indexed": false,
          "internalType": "uint256",
          "name": "value",
          "type": "uint256"
        }
      ],
      "name": "Approval",
      "type": "event"
    },
    {
      "anonymous": false,
      "inputs": [
        {
          "indexed": true,
          "internalType": "address",
          "name": "delegator",
          "type": "address"
        },
        {
          "indexed": true,
          "internalType": "address",
          "name": "fromDelegate",
          "type": "address"
        },
        {
          "indexed": true,
          "internalType": "address",
          "name": "toDelegate",
          "type": "address"
        }
      ],
      "name": "DelegateChanged",
      "type": "event"
    },
    {
      "anonymous": false,
      "inputs": [
        {
          "indexed": true,
          "internalType": "address",
          "name": "delegate",
          "type": "address"
        },
        {
          "indexed": false,
          "internalType": "uint256",
          "name": "previousBalance",
          "type": "uint256"
        },
        {
          "indexed": false,
          "internalType": "uint256",
          "name": "newBalance",
          "type": "uint256"
        }
      ],
      "name": "DelegateVotesChanged",
      "type": "event"
    },
    {
      "anonymous": false,
      "inputs": [
        {
          "indexed": true,
          "internalType": "address",
          "name": "previousOwner",
          "type": "address"
        },
        {
          "indexed": true,
          "internalType": "address",
          "name": "newOwner",
          "type": "address"
        }
      ],
      "name": "OwnershipTransferred",
      "type": "event"
    },
    {
      "anonymous": false,
      "inputs": [
        {
          "indexed": false,
          "internalType": "address",
          "name": "account",
          "type": "address"
        }
      ],
      "name": "Paused",
      "type": "event"
    },
    {
      "anonymous": false,
      "inputs": [
        {
          "indexed": true,
          "internalType": "address",
          "name": "from",
          "type": "address"
        },
        {
          "indexed": true,
          "internalType": "address",
          "name": "to",
          "type": "address"
        },
        {
          "indexed": false,
          "internalType": "uint256",
          "name": "value",
          "type": "uint256"
        }
      ],
      "name": "Transfer",
      "type": "event"
    },
    {
      "anonymous": false,
      "inputs": [
        {
          "indexed": false,
          "internalType": "address",
          "name": "account",
          "type": "address"
        }
      ],
      "name": "Unpaused",
      "type": "event"
    },
    {
      "inputs": [],
      "name": "DOMAIN_SEPARATOR",
      "outputs": [
        {
          "internalType": "bytes32",
          "name": "",
          "type": "bytes32"
        }
      ],
      "stateMutability": "view",
      "type": "function"
    },
    {
      "inputs": [
        {
          "internalType": "address",
          "name": "owner",
          "type": "address"
        },
        {
          "internalType": "address",
          "name": "spender",
          "type": "address"
        }
      ],
      "name": "allowance",
      "outputs": [
        {
          "internalType": "uint256",
          "name": "",
          "type": "uint256"
        }
      ],
      "stateMutability": "view",
      "type": "function"
    },
    {
      "inputs": [
        {
          "internalType": "address",
          "name": "spender",
          "type": "address"
        },
        {
          "internalType": "uint256",
          "name": "amount",
          "type": "uint256"
        }
      ],
      "name": "approve",
      "outputs": [
        {
          "internalType": "bool",
          "name": "",
          "type": "bool"
        }
      ],
      "stateMutability": "nonpayable",
      "type": "function"
    },
    {
      "inputs": [
        {
          "internalType": "address",
          "name": "account",
          "type": "address"
        }
      ],
      "name": "balanceOf",
      "outputs": [
        {
          "internalType": "uint256",
          "name": "",
          "type": "uint256"
        }
      ],
      "stateMutability": "view",
      "type": "function"
    },
    {
      "inputs": [
        {
          "internalType": "uint256",
          "name": "amount",
          "type": "uint256"
        }
      ],
      "name": "burn",
      "outputs": [],
      "stateMutability": "nonpayable",
      "type": "function"
    },
    {
      "inputs": [
        {
          "internalType": "address",
          "name": "account",
          "type": "address"
        },
        {
          "internalType": "uint256",
          "name": "amount",
          "type": "uint256"
        }
      ],
      "name": "burnFrom",
      "outputs": [],
      "stateMutability": "nonpayable",
      "type": "function"
    },
    {
      "inputs": [
        {
          "internalType": "address",
          "name": "account",
          "type": "address"
        },
        {
          "internalType": "uint32",
          "name": "pos",
          "type": "uint32"
        }
      ],
      "name": "checkpoints",
      "outputs": [
        {
          "components": [
            {
              "internalType": "uint32",
              "name": "fromBlock",
              "type": "uint32"
            },
            {
              "internalType": "uint224",
              "name": "votes",
              "type": "uint224"
            }
          ],
          "internalType": "struct ERC20Votes.Checkpoint",
          "name": "",
          "type": "tuple"
        }
      ],
      "stateMutability": "view",
      "type": "function"
    },
    {
      "inputs": [],
      "name": "decimals",
      "outputs": [
        {
          "internalType": "uint8",
          "name": "",
          "type": "uint8"
        }
      ],
      "stateMutability": "view",
      "type": "function"
    },
    {
      "inputs": [
        {
          "internalType": "address",
          "name": "spender",
          "type": "address"
        },
        {
          "internalType": "uint256",
          "name": "subtractedValue",
          "type": "uint256"
        }
      ],
      "name": "decreaseAllowance",
      "outputs": [
        {
          "internalType": "bool",
          "name": "",
          "type": "bool"
        }
      ],
      "stateMutability": "nonpayable",
      "type": "function"
    },
    {
      "inputs": [
        {
          "internalType": "address",
          "name": "delegatee",
          "type": "address"
        }
      ],
      "name": "delegate",
      "outputs": [],
      "stateMutability": "nonpayable",
      "type": "function"
    },
    {
      "inputs": [
        {
          "internalType": "address",
          "name": "delegatee",
          "type": "address"
        },
        {
          "internalType": "uint256",
          "name": "nonce",
          "type": "uint256"
        },
        {
          "internalType": "uint256",
          "name": "expiry",
          "type": "uint256"
        },
        {
          "internalType": "uint8",
          "name": "v",
          "type": "uint8"
        },
        {
          "internalType": "bytes32",
          "name": "r",
          "type": "bytes32"
        },
        {
          "internalType": "bytes32",
          "name": "s",
          "type": "bytes32"
        }
      ],
      "name": "delegateBySig",
      "outputs": [],
      "stateMutability": "nonpayable",
      "type": "function"
    },
    {
      "inputs": [
        {
          "internalType": "address",
          "name": "account",
          "type": "address"
        }
      ],
      "name": "delegates",
      "outputs": [
        {
          "internalType": "address",
          "name": "",
          "type": "address"
        }
      ],
      "stateMutability": "view",
      "type": "function"
    },
    {
      "inputs": [
        {
          "internalType": "uint256",
          "name": "blockNumber",
          "type": "uint256"
        }
      ],
      "name": "getPastTotalSupply",
      "outputs": [
        {
          "internalType": "uint256",
          "name": "",
          "type": "uint256"
        }
      ],
      "stateMutability": "view",
      "type": "function"
    },
    {
      "inputs": [
        {
          "internalType": "address",
          "name": "account",
          "type": "address"
        },
        {
          "internalType": "uint256",
          "name": "blockNumber",
          "type": "uint256"
        }
      ],
      "name": "getPastVotes",
      "outputs": [
        {
          "internalType": "uint256",
          "name": "",
          "type": "uint256"
        }
      ],
      "stateMutability": "view",
      "type": "function"
    },
    {
      "inputs": [
        {
          "internalType": "address",
          "name": "account",
          "type": "address"
        }
      ],
      "name": "getVotes",
      "outputs": [
        {
          "internalType": "uint256",
          "name": "",
          "type": "uint256"
        }
      ],
      "stateMutability": "view",
      "type": "function"
    },
    {
      "inputs": [
        {
          "internalType": "address",
          "name": "spender",
          "type": "address"
        },
        {
          "internalType": "uint256",
          "name": "addedValue",
          "type": "uint256"
        }
      ],
      "name": "increaseAllowance",
      "outputs": [
        {
          "internalType": "bool",
          "name": "",
          "type": "bool"
        }
      ],
      "stateMutability": "nonpayable",
      "type": "function"
    },
    {
      "inputs": [
        {
          "internalType": "address",
          "name": "to",
          "type": "address"
        },
        {
          "internalType": "uint256",
          "name": "amount",
          "type": "uint256"
        }
      ],
      "name": "mint",
      "outputs": [],
      "stateMutability": "nonpayable",
      "type": "function"
    },
    {
      "inputs": [],
      "name": "name",
      "outputs": [
        {
          "internalType": "string",
          "name": "",
          "type": "string"
        }
      ],
      "stateMutability": "view",
      "type": "function"
    },
    {
      "inputs": [
        {
          "internalType": "address",
          "name": "owner",
          "type": "address"
        }
      ],
      "name": "nonces",
      "outputs": [
        {
          "internalType": "uint256",
          "name": "",
          "type": "uint256"
        }
      ],
      "stateMutability": "view",
      "type": "function"
    },
    {
      "inputs": [
        {
          "internalType": "address",
          "name": "account",
          "type": "address"
        }
      ],
      "name": "numCheckpoints",
      "outputs": [
        {
          "internalType": "uint32",
          "name": "",
          "type": "uint32"
        }
      ],
      "stateMutability": "view",
      "type": "function"
    },
    {
      "inputs": [],
      "name": "owner",
      "outputs": [
        {
          "internalType": "address",
          "name": "",
          "type": "address"
        }
      ],
      "stateMutability": "view",
      "type": "function"
    },
    {
      "inputs": [],
      "name": "pause",
      "outputs": [],
      "stateMutability": "nonpayable",
      "type": "function"
    },
    {
      "inputs": [],
      "name": "paused",
      "outputs": [
        {
          "internalType": "bool",
          "name": "",
          "type": "bool"
        }
      ],
      "stateMutability": "view",
      "type": "function"
    },
    {
      "inputs": [
        {
          "internalType": "address",
          "name": "owner",
          "type": "address"
        },
        {
          "internalType": "address",
          "name": "spender",
          "type": "address"
        },
        {
          "internalType": "uint256",
          "name": "value",
          "type": "uint256"
        },
        {
          "internalType": "uint256",
          "name": "deadline",
          "type": "uint256"
        },
        {
          "internalType": "uint8",
          "name": "v",
          "type": "uint8"
        },
        {
          "internalType": "bytes32",
          "name": "r",
          "type": "bytes32"
        },
        {
          "internalType": "bytes32",
          "name": "s",
          "type": "bytes32"
        }
      ],
      "name": "permit",
      "outputs": [],
      "stateMutability": "nonpayable",
      "type": "function"
    },
    {
      "inputs": [],
      "name": "renounceOwnership",
      "outputs": [],
      "stateMutability": "nonpayable",
      "type": "function"
    },
    {
      "inputs": [],
      "name": "symbol",
      "outputs": [
        {
          "internalType": "string",
          "name": "",
          "type": "string"
        }
      ],
      "stateMutability": "view",
      "type": "function"
    },
    {
      "inputs": [],
      "name": "totalSupply",
      "outputs": [
        {
          "internalType": "uint256",
          "name": "",
          "type": "uint256"
        }
      ],
      "stateMutability": "view",
      "type": "function"
    },
    {
      "inputs": [
        {
          "internalType": "address",
          "name": "recipient",
          "type": "address"
        },
        {
          "internalType": "uint256",
          "name": "amount",
          "type": "uint256"
        }
      ],
      "name": "transfer",
      "outputs": [
        {
          "internalType": "bool",
          "name": "",
          "type": "bool"
        }
      ],
      "stateMutability": "nonpayable",
      "type": "function"
    },
    {
      "inputs": [
        {
          "internalType": "address",
          "name": "sender",
          "type": "address"
        },
        {
          "internalType": "address",
          "name": "recipient",
          "type": "address"
        },
        {
          "internalType": "uint256",
          "name": "amount",
          "type": "uint256"
        }
      ],
      "name": "transferFrom",
      "outputs": [
        {
          "internalType": "bool",
          "name": "",
          "type": "bool"
        }
      ],
      "stateMutability": "nonpayable",
      "type": "function"
    },
    {
      "inputs": [
        {
          "internalType": "address",
          "name": "newOwner",
          "type": "address"
        }
      ],
      "name": "transferOwnership",
      "outputs": [],
      "stateMutability": "nonpayable",
      "type": "function"
    },
    {
      "inputs": [],
      "name": "unpause",
      "outputs": [],
      "stateMutability": "nonpayable",
      "type": "function"
    }
  ],
  "bytecode": "0x6101406040527f6e71edae12b1b97f4d1f60370fef10105fa2faae0126114a169c64845d6126c9610120908152503480156200003a57600080fd5b506040518060400160405280600581526020017f41436f696e000000000000000000000000000000000000000000000000000000815250806040518060400160405280600181526020017f31000000000000000000000000000000000000000000000000000000000000008152506040518060400160405280600581526020017f41436f696e0000000000000000000000000000000000000000000000000000008152506040518060400160405280600381526020017f41434e000000000000000000000000000000000000000000000000000000000081525081600390805190602001906200012c92919062000d75565b5080600490805190602001906200014592919062000d75565b5050506000600560006101000a81548160ff02191690831515021790555062000183620001776200024760201b60201c565b6200024f60201b60201c565b60008280519060200120905060008280519060200120905060007f8b73c3c69bb8fe3d512ecc4cf759cc79239f7b179b0ffacaa9a75d522b39400f90508260c081815250508160e081815250504660a08181525050620001eb8184846200031560201b60201c565b608081815250508061010081815250505050505050506200024133620002166200035160201b60201c565b600a62000224919062001135565b633b9aca0062000235919062001272565b6200035a60201b60201c565b62001543565b600033905090565b6000600560019054906101000a900473ffffffffffffffffffffffffffffffffffffffff16905081600560016101000a81548173ffffffffffffffffffffffffffffffffffffffff021916908373ffffffffffffffffffffffffffffffffffffffff1602179055508173ffffffffffffffffffffffffffffffffffffffff168173ffffffffffffffffffffffffffffffffffffffff167f8be0079c531659141344cd1fd0a4f28419497f9722a3daafe3b4186f6b6457e060405160405180910390a35050565b600083838346306040516020016200033295949392919062000f1b565b6040516020818303038152906040528051906020012090509392505050565b60006012905090565b6200037182826200037560201b620016141760201c565b5050565b6200038c82826200043360201b620016a11760201c565b6200039c620005ac60201b60201c565b7bffffffffffffffffffffffffffffffffffffffffffffffffffffffff16620003ca620005d060201b60201c565b11156200040e576040517f08c379a0000000000000000000000000000000000000000000000000000000008152600401620004059062000f9a565b60405180910390fd5b6200042d6009620005da60201b620018011783620005f260201b60201c565b50505050565b600073ffffffffffffffffffffffffffffffffffffffff168273ffffffffffffffffffffffffffffffffffffffff161415620004a6576040517f08c379a00000000000000000000000000000000000000000000000000000000081526004016200049d9062001000565b60405180910390fd5b620004ba600083836200090f60201b60201c565b8060026000828254620004ce91906200107d565b92505081905550806000808473ffffffffffffffffffffffffffffffffffffffff1673ffffffffffffffffffffffffffffffffffffffff16815260200190815260200160002060008282546200052591906200107d565b925050819055508173ffffffffffffffffffffffffffffffffffffffff16600073ffffffffffffffffffffffffffffffffffffffff167fddf252ad1be2c89b69c2b068fc378daa952ba7f163c4a11628f55a4df523b3ef836040516200058c919062001022565b60405180910390a3620005a8600083836200097f60201b60201c565b5050565b60007bffffffffffffffffffffffffffffffffffffffffffffffffffffffff905090565b6000600254905090565b60008183620005ea91906200107d565b905092915050565b600080600085805490509050600081146200068b5785600182620006179190620012d3565b815481106200064f577f4e487b7100000000000000000000000000000000000000000000000000000000600052603260045260246000fd5b9060005260206000200160000160049054906101000a90047bffffffffffffffffffffffffffffffffffffffffffffffffffffffff166200068e565b60005b7bffffffffffffffffffffffffffffffffffffffffffffffffffffffff169250620006ba83858760201c565b91506000811180156200073757504386600183620006d99190620012d3565b8154811062000711577f4e487b7100000000000000000000000000000000000000000000000000000000600052603260045260246000fd5b9060005260206000200160000160009054906101000a900463ffffffff1663ffffffff16145b15620007fc5762000753826200099c60201b620018171760201c565b86600183620007639190620012d3565b815481106200079b577f4e487b7100000000000000000000000000000000000000000000000000000000600052603260045260246000fd5b9060005260206000200160000160046101000a8154817bffffffffffffffffffffffffffffffffffffffffffffffffffffffff02191690837bffffffffffffffffffffffffffffffffffffffffffffffffffffffff16021790555062000906565b8560405180604001604052806200081e4362000a0a60201b620018821760201c565b63ffffffff1681526020016200083f856200099c60201b620018171760201c565b7bffffffffffffffffffffffffffffffffffffffffffffffffffffffff168152509080600181540180825580915050600190039060005260206000200160009091909190915060008201518160000160006101000a81548163ffffffff021916908363ffffffff16021790555060208201518160000160046101000a8154817bffffffffffffffffffffffffffffffffffffffffffffffffffffffff02191690837bffffffffffffffffffffffffffffffffffffffffffffffffffffffff16021790555050505b50935093915050565b6200091f62000a6060201b60201c565b1562000962576040517f08c379a0000000000000000000000000000000000000000000000000000000008152600401620009599062000f78565b60405180910390fd5b6200097a83838362000a7760201b620018d51760201c565b505050565b6200099783838362000a7c60201b620018da1760201c565b505050565b60007bffffffffffffffffffffffffffffffffffffffffffffffffffffffff801682111562000a02576040517f08c379a0000000000000000000000000000000000000000000000000000000008152600401620009f99062000fbc565b60405180910390fd5b819050919050565b600063ffffffff801682111562000a58576040517f08c379a000000000000000000000000000000000000000000000000000000000815260040162000a4f9062000fde565b60405180910390fd5b819050919050565b6000600560009054906101000a900460ff16905090565b505050565b62000a9483838362000acc60201b620019051760201c565b62000ac762000aa98462000ad160201b60201c565b62000aba8462000ad160201b60201c565b8362000b3a60201b60201c565b505050565b505050565b6000600760008373ffffffffffffffffffffffffffffffffffffffff1673ffffffffffffffffffffffffffffffffffffffff16815260200190815260200160002060009054906101000a900473ffffffffffffffffffffffffffffffffffffffff169050919050565b8173ffffffffffffffffffffffffffffffffffffffff168373ffffffffffffffffffffffffffffffffffffffff161415801562000b775750600081115b1562000d5857600073ffffffffffffffffffffffffffffffffffffffff168373ffffffffffffffffffffffffffffffffffffffff161462000c6a5760008062000c11600860008773ffffffffffffffffffffffffffffffffffffffff1673ffffffffffffffffffffffffffffffffffffffff16815260200190815260200160002062000d5d60201b6200190a1785620005f260201b60201c565b915091508473ffffffffffffffffffffffffffffffffffffffff167fdec2bacdd2f05b59de34da9b523dff8be42e5e38e818c82fdb0bae774387a724838360405162000c5f9291906200103f565b60405180910390a250505b600073ffffffffffffffffffffffffffffffffffffffff168273ffffffffffffffffffffffffffffffffffffffff161462000d575760008062000cfe600860008673ffffffffffffffffffffffffffffffffffffffff1673ffffffffffffffffffffffffffffffffffffffff168152602001908152602001600020620005da60201b620018011785620005f260201b60201c565b915091508373ffffffffffffffffffffffffffffffffffffffff167fdec2bacdd2f05b59de34da9b523dff8be42e5e38e818c82fdb0bae774387a724838360405162000d4c9291906200103f565b60405180910390a250505b5b505050565b6000818362000d6d9190620012d3565b905092915050565b82805462000d839062001363565b90600052602060002090601f01602090048101928262000da7576000855562000df3565b82601f1062000dc257805160ff191683800117855562000df3565b8280016001018555821562000df3579182015b8281111562000df257825182559160200191906001019062000dd5565b5b50905062000e02919062000e06565b5090565b5b8082111562000e2157600081600090555060010162000e07565b5090565b62000e30816200130e565b82525050565b62000e418162001322565b82525050565b600062000e566010836200106c565b915062000e638262001404565b602082019050919050565b600062000e7d6030836200106c565b915062000e8a826200142d565b604082019050919050565b600062000ea46027836200106c565b915062000eb1826200147c565b604082019050919050565b600062000ecb6026836200106c565b915062000ed882620014cb565b604082019050919050565b600062000ef2601f836200106c565b915062000eff826200151a565b602082019050919050565b62000f15816200134c565b82525050565b600060a08201905062000f32600083018862000e36565b62000f41602083018762000e36565b62000f50604083018662000e36565b62000f5f606083018562000f0a565b62000f6e608083018462000e25565b9695505050505050565b6000602082019050818103600083015262000f938162000e47565b9050919050565b6000602082019050818103600083015262000fb58162000e6e565b9050919050565b6000602082019050818103600083015262000fd78162000e95565b9050919050565b6000602082019050818103600083015262000ff98162000ebc565b9050919050565b600060208201905081810360008301526200101b8162000ee3565b9050919050565b600060208201905062001039600083018462000f0a565b92915050565b600060408201905062001056600083018562000f0a565b62001065602083018462000f0a565b9392505050565b600082825260208201905092915050565b60006200108a826200134c565b915062001097836200134c565b9250827fffffffffffffffffffffffffffffffffffffffffffffffffffffffffffffffff03821115620010cf57620010ce62001399565b5b828201905092915050565b6000808291508390505b60018511156200112c5780860481111562001104576200110362001399565b5b6001851615620011145780820291505b80810290506200112485620013f7565b9450620010e4565b94509492505050565b600062001142826200134c565b91506200114f8362001356565b92506200117e7fffffffffffffffffffffffffffffffffffffffffffffffffffffffffffffffff848462001186565b905092915050565b6000826200119857600190506200126b565b81620011a857600090506200126b565b8160018114620011c15760028114620011cc5762001202565b60019150506200126b565b60ff841115620011e157620011e062001399565b5b8360020a915084821115620011fb57620011fa62001399565b5b506200126b565b5060208310610133831016604e8410600b84101617156200123c5782820a90508381111562001236576200123562001399565b5b6200126b565b6200124b8484846001620010da565b9250905081840481111562001265576200126462001399565b5b81810290505b9392505050565b60006200127f826200134c565b91506200128c836200134c565b9250817fffffffffffffffffffffffffffffffffffffffffffffffffffffffffffffffff0483118215151615620012c857620012c762001399565b5b828202905092915050565b6000620012e0826200134c565b9150620012ed836200134c565b92508282101562001303576200130262001399565b5b828203905092915050565b60006200131b826200132c565b9050919050565b6000819050919050565b600073ffffffffffffffffffffffffffffffffffffffff82169050919050565b6000819050919050565b600060ff82169050919050565b600060028204905060018216806200137c57607f821691505b60208210811415620013935762001392620013c8565b5b50919050565b7f4e487b7100000000000000000000000000000000000000000000000000000000600052601160045260246000fd5b7f4e487b7100000000000000000000000000000000000000000000000000000000600052602260045260246000fd5b60008160011c9050919050565b7f5061757361626c653a2070617573656400000000000000000000000000000000600082015250565b7f4552433230566f7465733a20746f74616c20737570706c79207269736b73206f60008201527f766572666c6f77696e6720766f74657300000000000000000000000000000000602082015250565b7f53616665436173743a2076616c756520646f65736e27742066697420696e203260008201527f3234206269747300000000000000000000000000000000000000000000000000602082015250565b7f53616665436173743a2076616c756520646f65736e27742066697420696e203360008201527f3220626974730000000000000000000000000000000000000000000000000000602082015250565b7f45524332303a206d696e7420746f20746865207a65726f206164647265737300600082015250565b60805160a05160c05160e051610100516101205161482e62001593600039600061126401526000611dcb01526000611e0d01526000611dec01526000611d7801526000611da0015261482e6000f3fe608060405234801561001057600080fd5b50600436106101e55760003560e01c806370a082311161010f5780639ab24eb0116100a2578063d505accf11610071578063d505accf146105a6578063dd62ed3e146105c2578063f1127ed8146105f2578063f2fde38b14610622576101e5565b80639ab24eb0146104fa578063a457c2d71461052a578063a9059cbb1461055a578063c3cda5201461058a576101e5565b80638456cb59116100de5780638456cb59146104845780638da5cb5b1461048e5780638e539e8c146104ac57806395d89b41146104dc576101e5565b806370a08231146103fe578063715018a61461042e57806379cc6790146104385780637ecebe0014610454576101e5565b80633a46b1a811610187578063587cde1e11610156578063587cde1e146103645780635c19a95c146103945780635c975abb146103b05780636fcfff45146103ce576101e5565b80633a46b1a8146102f25780633f4ba83a1461032257806340c10f191461032c57806342966c6814610348576101e5565b806323b872dd116101c357806323b872dd14610256578063313ce567146102865780633644e515146102a457806339509351146102c2576101e5565b806306fdde03146101ea578063095ea7b31461020857806318160ddd14610238575b600080fd5b6101f261063e565b6040516101ff91906139c3565b60405180910390f35b610222600480360381019061021d91906131e5565b6106d0565b60405161022f919061384f565b60405180910390f35b6102406106ee565b60405161024d9190613d80565b60405180910390f35b610270600480360381019061026b91906130f8565b6106f8565b60405161027d919061384f565b60405180910390f35b61028e6107f0565b60405161029b9190613ddf565b60405180910390f35b6102ac6107f9565b6040516102b9919061386a565b60405180910390f35b6102dc60048036038101906102d791906131e5565b610808565b6040516102e9919061384f565b60405180910390f35b61030c600480360381019061030791906131e5565b6108b4565b6040516103199190613d80565b60405180910390f35b61032a610948565b005b610346600480360381019061034191906131e5565b6109ce565b005b610362600480360381019061035d91906132e6565b610a58565b005b61037e60048036038101906103799190613093565b610a6c565b60405161038b9190613834565b60405180910390f35b6103ae60048036038101906103a99190613093565b610ad5565b005b6103b8610ae9565b6040516103c5919061384f565b60405180910390f35b6103e860048036038101906103e39190613093565b610b00565b6040516103f59190613dc4565b60405180910390f35b61041860048036038101906104139190613093565b610b54565b6040516104259190613d80565b60405180910390f35b610436610b9c565b005b610452600480360381019061044d91906131e5565b610c24565b005b61046e60048036038101906104699190613093565b610c9f565b60405161047b9190613d80565b60405180910390f35b61048c610cef565b005b610496610d75565b6040516104a39190613834565b60405180910390f35b6104c660048036038101906104c191906132e6565b610d9f565b6040516104d39190613d80565b60405180910390f35b6104e4610df5565b6040516104f191906139c3565b60405180910390f35b610514600480360381019061050f9190613093565b610e87565b6040516105219190613d80565b60405180910390f35b610544600480360381019061053f91906131e5565b610fbe565b604051610551919061384f565b60405180910390f35b610574600480360381019061056f91906131e5565b6110a9565b604051610581919061384f565b60405180910390f35b6105a4600480360381019061059f9190613221565b611119565b005b6105c060048036038101906105bb9190613147565b61121d565b005b6105dc60048036038101906105d791906130bc565b61135f565b6040516105e99190613d80565b60405180910390f35b61060c600480360381019061060791906132aa565b6113e6565b6040516106199190613d65565b60405180910390f35b61063c60048036038101906106379190613093565b61151c565b005b60606003805461064d90613fa6565b80601f016020809104026020016040519081016040528092919081815260200182805461067990613fa6565b80156106c65780601f1061069b576101008083540402835291602001916106c6565b820191906000526020600020905b8154815290600101906020018083116106a957829003601f168201915b5050505050905090565b60006106e46106dd611920565b8484611928565b6001905092915050565b6000600254905090565b6000610705848484611af3565b6000600160008673ffffffffffffffffffffffffffffffffffffffff1673ffffffffffffffffffffffffffffffffffffffff1681526020019081526020016000206000610750611920565b73ffffffffffffffffffffffffffffffffffffffff1673ffffffffffffffffffffffffffffffffffffffff168152602001908152602001600020549050828110156107d0576040517f08c379a00000000000000000000000000000000000000000000000000000000081526004016107c790613be5565b60405180910390fd5b6107e4856107dc611920565b858403611928565b60019150509392505050565b60006012905090565b6000610803611d74565b905090565b60006108aa610815611920565b848460016000610823611920565b73ffffffffffffffffffffffffffffffffffffffff1673ffffffffffffffffffffffffffffffffffffffff16815260200190815260200160002060008873ffffffffffffffffffffffffffffffffffffffff1673ffffffffffffffffffffffffffffffffffffffff168152602001908152602001600020546108a59190613e21565b611928565b6001905092915050565b60004382106108f8576040517f08c379a00000000000000000000000000000000000000000000000000000000081526004016108ef90613a25565b60405180910390fd5b610940600860008573ffffffffffffffffffffffffffffffffffffffff1673ffffffffffffffffffffffffffffffffffffffff16815260200190815260200160002083611e37565b905092915050565b610950611920565b73ffffffffffffffffffffffffffffffffffffffff1661096e610d75565b73ffffffffffffffffffffffffffffffffffffffff16146109c4576040517f08c379a00000000000000000000000000000000000000000000000000000000081526004016109bb90613c25565b60405180910390fd5b6109cc611f8f565b565b6109d6611920565b73ffffffffffffffffffffffffffffffffffffffff166109f4610d75565b73ffffffffffffffffffffffffffffffffffffffff1614610a4a576040517f08c379a0000000000000000000000000000000000000000000000000000000008152600401610a4190613c25565b60405180910390fd5b610a548282612031565b5050565b610a69610a63611920565b8261203f565b50565b6000600760008373ffffffffffffffffffffffffffffffffffffffff1673ffffffffffffffffffffffffffffffffffffffff16815260200190815260200160002060009054906101000a900473ffffffffffffffffffffffffffffffffffffffff169050919050565b610ae6610ae0611920565b8261204d565b50565b6000600560009054906101000a900460ff16905090565b6000610b4d600860008473ffffffffffffffffffffffffffffffffffffffff1673ffffffffffffffffffffffffffffffffffffffff16815260200190815260200160002080549050611882565b9050919050565b60008060008373ffffffffffffffffffffffffffffffffffffffff1673ffffffffffffffffffffffffffffffffffffffff168152602001908152602001600020549050919050565b610ba4611920565b73ffffffffffffffffffffffffffffffffffffffff16610bc2610d75565b73ffffffffffffffffffffffffffffffffffffffff1614610c18576040517f08c379a0000000000000000000000000000000000000000000000000000000008152600401610c0f90613c25565b60405180910390fd5b610c226000612167565b565b6000610c3783610c32611920565b61135f565b905081811015610c7c576040517f08c379a0000000000000000000000000000000000000000000000000000000008152600401610c7390613c65565b60405180910390fd5b610c9083610c88611920565b848403611928565b610c9a838361203f565b505050565b6000610ce8600660008473ffffffffffffffffffffffffffffffffffffffff1673ffffffffffffffffffffffffffffffffffffffff16815260200190815260200160002061222d565b9050919050565b610cf7611920565b73ffffffffffffffffffffffffffffffffffffffff16610d15610d75565b73ffffffffffffffffffffffffffffffffffffffff1614610d6b576040517f08c379a0000000000000000000000000000000000000000000000000000000008152600401610d6290613c25565b60405180910390fd5b610d7361223b565b565b6000600560019054906101000a900473ffffffffffffffffffffffffffffffffffffffff16905090565b6000438210610de3576040517f08c379a0000000000000000000000000000000000000000000000000000000008152600401610dda90613a25565b60405180910390fd5b610dee600983611e37565b9050919050565b606060048054610e0490613fa6565b80601f0160208091040260200160405190810160405280929190818152602001828054610e3090613fa6565b8015610e7d5780601f10610e5257610100808354040283529160200191610e7d565b820191906000526020600020905b815481529060010190602001808311610e6057829003601f168201915b5050505050905090565b600080600860008473ffffffffffffffffffffffffffffffffffffffff1673ffffffffffffffffffffffffffffffffffffffff16815260200190815260200160002080549050905060008114610f9557600860008473ffffffffffffffffffffffffffffffffffffffff1673ffffffffffffffffffffffffffffffffffffffff168152602001908152602001600020600182610f239190613ea8565b81548110610f5a577f4e487b7100000000000000000000000000000000000000000000000000000000600052603260045260246000fd5b9060005260206000200160000160049054906101000a90047bffffffffffffffffffffffffffffffffffffffffffffffffffffffff16610f98565b60005b7bffffffffffffffffffffffffffffffffffffffffffffffffffffffff16915050919050565b60008060016000610fcd611920565b73ffffffffffffffffffffffffffffffffffffffff1673ffffffffffffffffffffffffffffffffffffffff16815260200190815260200160002060008573ffffffffffffffffffffffffffffffffffffffff1673ffffffffffffffffffffffffffffffffffffffff1681526020019081526020016000205490508281101561108a576040517f08c379a000000000000000000000000000000000000000000000000000000000815260040161108190613d25565b60405180910390fd5b61109e611095611920565b85858403611928565b600191505092915050565b6000600a6110bd6110b8611920565b610b54565b116110fd576040517f08c379a00000000000000000000000000000000000000000000000000000000081526004016110f490613d05565b60405180910390fd5b61110f611108611920565b8484611af3565b6001905092915050565b8342111561115c576040517f08c379a000000000000000000000000000000000000000000000000000000000815260040161115390613a65565b60405180910390fd5b60006111be6111b67fe48329057bfd03d55e49b547132e39cffd9c1820ad7b9d4c5307691425d15adf89898960405160200161119b94939291906138e6565b604051602081830303815290604052805190602001206122de565b8585856122f8565b90506111c981612323565b861461120a576040517f08c379a000000000000000000000000000000000000000000000000000000000815260040161120190613ac5565b60405180910390fd5b611214818861204d565b50505050505050565b83421115611260576040517f08c379a000000000000000000000000000000000000000000000000000000000815260040161125790613b25565b60405180910390fd5b60007f000000000000000000000000000000000000000000000000000000000000000088888861128f8c612323565b896040516020016112a596959493929190613885565b60405160208183030381529060405280519060200120905060006112c8826122de565b905060006112d8828787876122f8565b90508973ffffffffffffffffffffffffffffffffffffffff168173ffffffffffffffffffffffffffffffffffffffff1614611348576040517f08c379a000000000000000000000000000000000000000000000000000000000815260040161133f90613bc5565b60405180910390fd5b6113538a8a8a611928565b50505050505050505050565b6000600160008473ffffffffffffffffffffffffffffffffffffffff1673ffffffffffffffffffffffffffffffffffffffff16815260200190815260200160002060008373ffffffffffffffffffffffffffffffffffffffff1673ffffffffffffffffffffffffffffffffffffffff16815260200190815260200160002054905092915050565b6113ee612fec565b600860008473ffffffffffffffffffffffffffffffffffffffff1673ffffffffffffffffffffffffffffffffffffffff1681526020019081526020016000208263ffffffff168154811061146b577f4e487b7100000000000000000000000000000000000000000000000000000000600052603260045260246000fd5b906000526020600020016040518060400160405290816000820160009054906101000a900463ffffffff1663ffffffff1663ffffffff1681526020016000820160049054906101000a90047bffffffffffffffffffffffffffffffffffffffffffffffffffffffff167bffffffffffffffffffffffffffffffffffffffffffffffffffffffff167bffffffffffffffffffffffffffffffffffffffffffffffffffffffff1681525050905092915050565b611524611920565b73ffffffffffffffffffffffffffffffffffffffff16611542610d75565b73ffffffffffffffffffffffffffffffffffffffff1614611598576040517f08c379a000000000000000000000000000000000000000000000000000000000815260040161158f90613c25565b60405180910390fd5b600073ffffffffffffffffffffffffffffffffffffffff168173ffffffffffffffffffffffffffffffffffffffff161415611608576040517f08c379a00000000000000000000000000000000000000000000000000000000081526004016115ff90613ae5565b60405180910390fd5b61161181612167565b50565b61161e82826116a1565b611626612381565b7bffffffffffffffffffffffffffffffffffffffffffffffffffffffff1661164c6106ee565b111561168d576040517f08c379a000000000000000000000000000000000000000000000000000000000815260040161168490613c05565b60405180910390fd5b61169b6009611801836123a5565b50505050565b600073ffffffffffffffffffffffffffffffffffffffff168273ffffffffffffffffffffffffffffffffffffffff161415611711576040517f08c379a000000000000000000000000000000000000000000000000000000000815260040161170890613d45565b60405180910390fd5b61171d6000838361268f565b806002600082825461172f9190613e21565b92505081905550806000808473ffffffffffffffffffffffffffffffffffffffff1673ffffffffffffffffffffffffffffffffffffffff16815260200190815260200160002060008282546117849190613e21565b925050819055508173ffffffffffffffffffffffffffffffffffffffff16600073ffffffffffffffffffffffffffffffffffffffff167fddf252ad1be2c89b69c2b068fc378daa952ba7f163c4a11628f55a4df523b3ef836040516117e99190613d80565b60405180910390a36117fd600083836126e7565b5050565b6000818361180f9190613e21565b905092915050565b60007bffffffffffffffffffffffffffffffffffffffffffffffffffffffff801682111561187a576040517f08c379a000000000000000000000000000000000000000000000000000000000815260040161187190613c45565b60405180910390fd5b819050919050565b600063ffffffff80168211156118cd576040517f08c379a00000000000000000000000000000000000000000000000000000000081526004016118c490613cc5565b60405180910390fd5b819050919050565b505050565b6118e5838383611905565b6119006118f184610a6c565b6118fa84610a6c565b836126f7565b505050565b505050565b600081836119189190613ea8565b905092915050565b600033905090565b600073ffffffffffffffffffffffffffffffffffffffff168373ffffffffffffffffffffffffffffffffffffffff161415611998576040517f08c379a000000000000000000000000000000000000000000000000000000000815260040161198f90613ce5565b60405180910390fd5b600073ffffffffffffffffffffffffffffffffffffffff168273ffffffffffffffffffffffffffffffffffffffff161415611a08576040517f08c379a00000000000000000000000000000000000000000000000000000000081526004016119ff90613b05565b60405180910390fd5b80600160008573ffffffffffffffffffffffffffffffffffffffff1673ffffffffffffffffffffffffffffffffffffffff16815260200190815260200160002060008473ffffffffffffffffffffffffffffffffffffffff1673ffffffffffffffffffffffffffffffffffffffff168152602001908152602001600020819055508173ffffffffffffffffffffffffffffffffffffffff168373ffffffffffffffffffffffffffffffffffffffff167f8c5be1e5ebec7d5bd14f71427d1e84f3dd0314c0f7b2291e5b200ac8c7c3b92583604051611ae69190613d80565b60405180910390a3505050565b600073ffffffffffffffffffffffffffffffffffffffff168373ffffffffffffffffffffffffffffffffffffffff161415611b63576040517f08c379a0000000000000000000000000000000000000000000000000000000008152600401611b5a90613ca5565b60405180910390fd5b600073ffffffffffffffffffffffffffffffffffffffff168273ffffffffffffffffffffffffffffffffffffffff161415611bd3576040517f08c379a0000000000000000000000000000000000000000000000000000000008152600401611bca90613a05565b60405180910390fd5b611bde83838361268f565b60008060008573ffffffffffffffffffffffffffffffffffffffff1673ffffffffffffffffffffffffffffffffffffffff16815260200190815260200160002054905081811015611c64576040517f08c379a0000000000000000000000000000000000000000000000000000000008152600401611c5b90613b45565b60405180910390fd5b8181036000808673ffffffffffffffffffffffffffffffffffffffff1673ffffffffffffffffffffffffffffffffffffffff16815260200190815260200160002081905550816000808573ffffffffffffffffffffffffffffffffffffffff1673ffffffffffffffffffffffffffffffffffffffff1681526020019081526020016000206000828254611cf79190613e21565b925050819055508273ffffffffffffffffffffffffffffffffffffffff168473ffffffffffffffffffffffffffffffffffffffff167fddf252ad1be2c89b69c2b068fc378daa952ba7f163c4a11628f55a4df523b3ef84604051611d5b9190613d80565b60405180910390a3611d6e8484846126e7565b50505050565b60007f0000000000000000000000000000000000000000000000000000000000000000461415611dc6577f00000000000000000000000000000000000000000000000000000000000000009050611e34565b611e317f00000000000000000000000000000000000000000000000000000000000000007f00000000000000000000000000000000000000000000000000000000000000007f00000000000000000000000000000000000000000000000000000000000000006128f0565b90505b90565b6000808380549050905060005b81811015611edc576000611e58828461292a565b905084868281548110611e94577f4e487b7100000000000000000000000000000000000000000000000000000000600052603260045260246000fd5b9060005260206000200160000160009054906101000a900463ffffffff1663ffffffff161115611ec657809250611ed6565b600181611ed39190613e21565b91505b50611e44565b60008214611f645784600183611ef29190613ea8565b81548110611f29577f4e487b7100000000000000000000000000000000000000000000000000000000600052603260045260246000fd5b9060005260206000200160000160049054906101000a90047bffffffffffffffffffffffffffffffffffffffffffffffffffffffff16611f67565b60005b7bffffffffffffffffffffffffffffffffffffffffffffffffffffffff169250505092915050565b611f97610ae9565b611fd6576040517f08c379a0000000000000000000000000000000000000000000000000000000008152600401611fcd90613a45565b60405180910390fd5b6000600560006101000a81548160ff0219169083151502179055507f5db9ee0a495bf2e6ff9c91a7834c1ba4fdd244a5e8aa4e537bd38aeae4b073aa61201a611920565b6040516120279190613834565b60405180910390a1565b61203b8282611614565b5050565b6120498282612950565b5050565b600061205883610a6c565b9050600061206584610b54565b905082600760008673ffffffffffffffffffffffffffffffffffffffff1673ffffffffffffffffffffffffffffffffffffffff16815260200190815260200160002060006101000a81548173ffffffffffffffffffffffffffffffffffffffff021916908373ffffffffffffffffffffffffffffffffffffffff1602179055508273ffffffffffffffffffffffffffffffffffffffff168273ffffffffffffffffffffffffffffffffffffffff168573ffffffffffffffffffffffffffffffffffffffff167f3134e8a2e6d97e929a7e54011ea5485d7d196dd5f0ba4d4ef95803e8e3fc257f60405160405180910390a46121618284836126f7565b50505050565b6000600560019054906101000a900473ffffffffffffffffffffffffffffffffffffffff16905081600560016101000a81548173ffffffffffffffffffffffffffffffffffffffff021916908373ffffffffffffffffffffffffffffffffffffffff1602179055508173ffffffffffffffffffffffffffffffffffffffff168173ffffffffffffffffffffffffffffffffffffffff167f8be0079c531659141344cd1fd0a4f28419497f9722a3daafe3b4186f6b6457e060405160405180910390a35050565b600081600001549050919050565b612243610ae9565b15612283576040517f08c379a000000000000000000000000000000000000000000000000000000000815260040161227a90613b85565b60405180910390fd5b6001600560006101000a81548160ff0219169083151502179055507f62e78cea01bee320cd4e420270b5ea74000d11b0c9f74754ebdbfc544b05a2586122c7611920565b6040516122d49190613834565b60405180910390a1565b60006122f16122eb611d74565b8361296e565b9050919050565b6000806000612309878787876129a1565b9150915061231681612aae565b8192505050949350505050565b600080600660008473ffffffffffffffffffffffffffffffffffffffff1673ffffffffffffffffffffffffffffffffffffffff16815260200190815260200160002090506123708161222d565b915061237b81612dff565b50919050565b60007bffffffffffffffffffffffffffffffffffffffffffffffffffffffff905090565b6000806000858054905090506000811461243957856001826123c79190613ea8565b815481106123fe577f4e487b7100000000000000000000000000000000000000000000000000000000600052603260045260246000fd5b9060005260206000200160000160049054906101000a90047bffffffffffffffffffffffffffffffffffffffffffffffffffffffff1661243c565b60005b7bffffffffffffffffffffffffffffffffffffffffffffffffffffffff16925061246a83858763ffffffff16565b91506000811180156124e3575043866001836124869190613ea8565b815481106124bd577f4e487b7100000000000000000000000000000000000000000000000000000000600052603260045260246000fd5b9060005260206000200160000160009054906101000a900463ffffffff1663ffffffff16145b15612596576124f182611817565b866001836124ff9190613ea8565b81548110612536577f4e487b7100000000000000000000000000000000000000000000000000000000600052603260045260246000fd5b9060005260206000200160000160046101000a8154817bffffffffffffffffffffffffffffffffffffffffffffffffffffffff02191690837bffffffffffffffffffffffffffffffffffffffffffffffffffffffff160217905550612686565b8560405180604001604052806125ab43611882565b63ffffffff1681526020016125bf85611817565b7bffffffffffffffffffffffffffffffffffffffffffffffffffffffff168152509080600181540180825580915050600190039060005260206000200160009091909190915060008201518160000160006101000a81548163ffffffff021916908363ffffffff16021790555060208201518160000160046101000a8154817bffffffffffffffffffffffffffffffffffffffffffffffffffffffff02191690837bffffffffffffffffffffffffffffffffffffffffffffffffffffffff16021790555050505b50935093915050565b612697610ae9565b156126d7576040517f08c379a00000000000000000000000000000000000000000000000000000000081526004016126ce90613b85565b60405180910390fd5b6126e28383836118d5565b505050565b6126f28383836118da565b505050565b8173ffffffffffffffffffffffffffffffffffffffff168373ffffffffffffffffffffffffffffffffffffffff16141580156127335750600081115b156128eb57600073ffffffffffffffffffffffffffffffffffffffff168373ffffffffffffffffffffffffffffffffffffffff1614612811576000806127ba600860008773ffffffffffffffffffffffffffffffffffffffff1673ffffffffffffffffffffffffffffffffffffffff16815260200190815260200160002061190a856123a5565b915091508473ffffffffffffffffffffffffffffffffffffffff167fdec2bacdd2f05b59de34da9b523dff8be42e5e38e818c82fdb0bae774387a7248383604051612806929190613d9b565b60405180910390a250505b600073ffffffffffffffffffffffffffffffffffffffff168273ffffffffffffffffffffffffffffffffffffffff16146128ea57600080612893600860008673ffffffffffffffffffffffffffffffffffffffff1673ffffffffffffffffffffffffffffffffffffffff168152602001908152602001600020611801856123a5565b915091508373ffffffffffffffffffffffffffffffffffffffff167fdec2bacdd2f05b59de34da9b523dff8be42e5e38e818c82fdb0bae774387a72483836040516128df929190613d9b565b60405180910390a250505b5b505050565b6000838383463060405160200161290b95949392919061392b565b6040516020818303038152906040528051906020012090509392505050565b6000600282841861293b9190613e77565b8284166129489190613e21565b905092915050565b61295a8282612e15565b612968600961190a836123a5565b50505050565b600082826040516020016129839291906137fd565b60405160208183030381529060405280519060200120905092915050565b6000807f7fffffffffffffffffffffffffffffff5d576e7357a4501ddfe92f46681b20a08360001c11156129dc576000600391509150612aa5565b601b8560ff16141580156129f45750601c8560ff1614155b15612a06576000600491509150612aa5565b600060018787878760405160008152602001604052604051612a2b949392919061397e565b6020604051602081039080840390855afa158015612a4d573d6000803e3d6000fd5b505050602060405103519050600073ffffffffffffffffffffffffffffffffffffffff168173ffffffffffffffffffffffffffffffffffffffff161415612a9c57600060019250925050612aa5565b80600092509250505b94509492505050565b60006004811115612ae8577f4e487b7100000000000000000000000000000000000000000000000000000000600052602160045260246000fd5b816004811115612b21577f4e487b7100000000000000000000000000000000000000000000000000000000600052602160045260246000fd5b1415612b2c57612dfc565b60016004811115612b66577f4e487b7100000000000000000000000000000000000000000000000000000000600052602160045260246000fd5b816004811115612b9f577f4e487b7100000000000000000000000000000000000000000000000000000000600052602160045260246000fd5b1415612be0576040517f08c379a0000000000000000000000000000000000000000000000000000000008152600401612bd7906139e5565b60405180910390fd5b60026004811115612c1a577f4e487b7100000000000000000000000000000000000000000000000000000000600052602160045260246000fd5b816004811115612c53577f4e487b7100000000000000000000000000000000000000000000000000000000600052602160045260246000fd5b1415612c94576040517f08c379a0000000000000000000000000000000000000000000000000000000008152600401612c8b90613aa5565b60405180910390fd5b60036004811115612cce577f4e487b7100000000000000000000000000000000000000000000000000000000600052602160045260246000fd5b816004811115612d07577f4e487b7100000000000000000000000000000000000000000000000000000000600052602160045260246000fd5b1415612d48576040517f08c379a0000000000000000000000000000000000000000000000000000000008152600401612d3f90613b65565b60405180910390fd5b600480811115612d81577f4e487b7100000000000000000000000000000000000000000000000000000000600052602160045260246000fd5b816004811115612dba577f4e487b7100000000000000000000000000000000000000000000000000000000600052602160045260246000fd5b1415612dfb576040517f08c379a0000000000000000000000000000000000000000000000000000000008152600401612df290613ba5565b60405180910390fd5b5b50565b6001816000016000828254019250508190555050565b600073ffffffffffffffffffffffffffffffffffffffff168273ffffffffffffffffffffffffffffffffffffffff161415612e85576040517f08c379a0000000000000000000000000000000000000000000000000000000008152600401612e7c90613c85565b60405180910390fd5b612e918260008361268f565b60008060008473ffffffffffffffffffffffffffffffffffffffff1673ffffffffffffffffffffffffffffffffffffffff16815260200190815260200160002054905081811015612f17576040517f08c379a0000000000000000000000000000000000000000000000000000000008152600401612f0e90613a85565b60405180910390fd5b8181036000808573ffffffffffffffffffffffffffffffffffffffff1673ffffffffffffffffffffffffffffffffffffffff168152602001908152602001600020819055508160026000828254612f6e9190613ea8565b92505081905550600073ffffffffffffffffffffffffffffffffffffffff168373ffffffffffffffffffffffffffffffffffffffff167fddf252ad1be2c89b69c2b068fc378daa952ba7f163c4a11628f55a4df523b3ef84604051612fd39190613d80565b60405180910390a3612fe7836000846126e7565b505050565b6040518060400160405280600063ffffffff16815260200160007bffffffffffffffffffffffffffffffffffffffffffffffffffffffff1681525090565b60008135905061303981614785565b92915050565b60008135905061304e8161479c565b92915050565b600081359050613063816147b3565b92915050565b600081359050613078816147ca565b92915050565b60008135905061308d816147e1565b92915050565b6000602082840312156130a557600080fd5b60006130b38482850161302a565b91505092915050565b600080604083850312156130cf57600080fd5b60006130dd8582860161302a565b92505060206130ee8582860161302a565b9150509250929050565b60008060006060848603121561310d57600080fd5b600061311b8682870161302a565b935050602061312c8682870161302a565b925050604061313d86828701613054565b9150509250925092565b600080600080600080600060e0888a03121561316257600080fd5b60006131708a828b0161302a565b97505060206131818a828b0161302a565b96505060406131928a828b01613054565b95505060606131a38a828b01613054565b94505060806131b48a828b0161307e565b93505060a06131c58a828b0161303f565b92505060c06131d68a828b0161303f565b91505092959891949750929550565b600080604083850312156131f857600080fd5b60006132068582860161302a565b925050602061321785828601613054565b9150509250929050565b60008060008060008060c0878903121561323a57600080fd5b600061324889828a0161302a565b965050602061325989828a01613054565b955050604061326a89828a01613054565b945050606061327b89828a0161307e565b935050608061328c89828a0161303f565b92505060a061329d89828a0161303f565b9150509295509295509295565b600080604083850312156132bd57600080fd5b60006132cb8582860161302a565b92505060206132dc85828601613069565b9150509250929050565b6000602082840312156132f857600080fd5b600061330684828501613054565b91505092915050565b61331881613edc565b82525050565b61332781613eee565b82525050565b61333681613efa565b82525050565b61334d61334882613efa565b613fd8565b82525050565b600061335e82613dfa565b6133688185613e05565b9350613378818560208601613f73565b6133818161406f565b840191505092915050565b6000613399601883613e05565b91506133a482614080565b602082019050919050565b60006133bc602383613e05565b91506133c7826140a9565b604082019050919050565b60006133df601f83613e05565b91506133ea826140f8565b602082019050919050565b6000613402601483613e05565b915061340d82614121565b602082019050919050565b6000613425601d83613e05565b91506134308261414a565b602082019050919050565b6000613448602283613e05565b915061345382614173565b604082019050919050565b600061346b601f83613e05565b9150613476826141c2565b602082019050919050565b600061348e601983613e05565b9150613499826141eb565b602082019050919050565b60006134b1602683613e05565b91506134bc82614214565b604082019050919050565b60006134d4602283613e05565b91506134df82614263565b604082019050919050565b60006134f7600283613e16565b9150613502826142b2565b600282019050919050565b600061351a601d83613e05565b9150613525826142db565b602082019050919050565b600061353d602683613e05565b915061354882614304565b604082019050919050565b6000613560602283613e05565b915061356b82614353565b604082019050919050565b6000613583601083613e05565b915061358e826143a2565b602082019050919050565b60006135a6602283613e05565b91506135b1826143cb565b604082019050919050565b60006135c9601e83613e05565b91506135d48261441a565b602082019050919050565b60006135ec602883613e05565b91506135f782614443565b604082019050919050565b600061360f603083613e05565b915061361a82614492565b604082019050919050565b6000613632602083613e05565b915061363d826144e1565b602082019050919050565b6000613655602783613e05565b91506136608261450a565b604082019050919050565b6000613678602483613e05565b915061368382614559565b604082019050919050565b600061369b602183613e05565b91506136a6826145a8565b604082019050919050565b60006136be602583613e05565b91506136c9826145f7565b604082019050919050565b60006136e1602683613e05565b91506136ec82614646565b604082019050919050565b6000613704602483613e05565b915061370f82614695565b604082019050919050565b6000613727601b83613e05565b9150613732826146e4565b602082019050919050565b600061374a602583613e05565b91506137558261470d565b604082019050919050565b600061376d601f83613e05565b91506137788261475c565b602082019050919050565b60408201600082015161379960008501826137d0565b5060208201516137ac60208501826137b2565b50505050565b6137bb81613f24565b82525050565b6137ca81613f4c565b82525050565b6137d981613f56565b82525050565b6137e881613f56565b82525050565b6137f781613f66565b82525050565b6000613808826134ea565b9150613814828561333c565b602082019150613824828461333c565b6020820191508190509392505050565b6000602082019050613849600083018461330f565b92915050565b6000602082019050613864600083018461331e565b92915050565b600060208201905061387f600083018461332d565b92915050565b600060c08201905061389a600083018961332d565b6138a7602083018861330f565b6138b4604083018761330f565b6138c160608301866137c1565b6138ce60808301856137c1565b6138db60a08301846137c1565b979650505050505050565b60006080820190506138fb600083018761332d565b613908602083018661330f565b61391560408301856137c1565b61392260608301846137c1565b95945050505050565b600060a082019050613940600083018861332d565b61394d602083018761332d565b61395a604083018661332d565b61396760608301856137c1565b613974608083018461330f565b9695505050505050565b6000608082019050613993600083018761332d565b6139a060208301866137ee565b6139ad604083018561332d565b6139ba606083018461332d565b95945050505050565b600060208201905081810360008301526139dd8184613353565b905092915050565b600060208201905081810360008301526139fe8161338c565b9050919050565b60006020820190508181036000830152613a1e816133af565b9050919050565b60006020820190508181036000830152613a3e816133d2565b9050919050565b60006020820190508181036000830152613a5e816133f5565b9050919050565b60006020820190508181036000830152613a7e81613418565b9050919050565b60006020820190508181036000830152613a9e8161343b565b9050919050565b60006020820190508181036000830152613abe8161345e565b9050919050565b60006020820190508181036000830152613ade81613481565b9050919050565b60006020820190508181036000830152613afe816134a4565b9050919050565b60006020820190508181036000830152613b1e816134c7565b9050919050565b60006020820190508181036000830152613b3e8161350d565b9050919050565b60006020820190508181036000830152613b5e81613530565b9050919050565b60006020820190508181036000830152613b7e81613553565b9050919050565b60006020820190508181036000830152613b9e81613576565b9050919050565b60006020820190508181036000830152613bbe81613599565b9050919050565b60006020820190508181036000830152613bde816135bc565b9050919050565b60006020820190508181036000830152613bfe816135df565b9050919050565b60006020820190508181036000830152613c1e81613602565b9050919050565b60006020820190508181036000830152613c3e81613625565b9050919050565b60006020820190508181036000830152613c5e81613648565b9050919050565b60006020820190508181036000830152613c7e8161366b565b9050919050565b60006020820190508181036000830152613c9e8161368e565b9050919050565b60006020820190508181036000830152613cbe816136b1565b9050919050565b60006020820190508181036000830152613cde816136d4565b9050919050565b60006020820190508181036000830152613cfe816136f7565b9050919050565b60006020820190508181036000830152613d1e8161371a565b9050919050565b60006020820190508181036000830152613d3e8161373d565b9050919050565b60006020820190508181036000830152613d5e81613760565b9050919050565b6000604082019050613d7a6000830184613783565b92915050565b6000602082019050613d9560008301846137c1565b92915050565b6000604082019050613db060008301856137c1565b613dbd60208301846137c1565b9392505050565b6000602082019050613dd960008301846137df565b92915050565b6000602082019050613df460008301846137ee565b92915050565b600081519050919050565b600082825260208201905092915050565b600081905092915050565b6000613e2c82613f4c565b9150613e3783613f4c565b9250827fffffffffffffffffffffffffffffffffffffffffffffffffffffffffffffffff03821115613e6c57613e6b613fe2565b5b828201905092915050565b6000613e8282613f4c565b9150613e8d83613f4c565b925082613e9d57613e9c614011565b5b828204905092915050565b6000613eb382613f4c565b9150613ebe83613f4c565b925082821015613ed157613ed0613fe2565b5b828203905092915050565b6000613ee782613f04565b9050919050565b60008115159050919050565b6000819050919050565b600073ffffffffffffffffffffffffffffffffffffffff82169050919050565b60007bffffffffffffffffffffffffffffffffffffffffffffffffffffffff82169050919050565b6000819050919050565b600063ffffffff82169050919050565b600060ff82169050919050565b60005b83811015613f91578082015181840152602081019050613f76565b83811115613fa0576000848401525b50505050565b60006002820490506001821680613fbe57607f821691505b60208210811415613fd257613fd1614040565b5b50919050565b6000819050919050565b7f4e487b7100000000000000000000000000000000000000000000000000000000600052601160045260246000fd5b7f4e487b7100000000000000000000000000000000000000000000000000000000600052601260045260246000fd5b7f4e487b7100000000000000000000000000000000000000000000000000000000600052602260045260246000fd5b6000601f19601f8301169050919050565b7f45434453413a20696e76616c6964207369676e61747572650000000000000000600082015250565b7f45524332303a207472616e7366657220746f20746865207a65726f206164647260008201527f6573730000000000000000000000000000000000000000000000000000000000602082015250565b7f4552433230566f7465733a20626c6f636b206e6f7420796574206d696e656400600082015250565b7f5061757361626c653a206e6f7420706175736564000000000000000000000000600082015250565b7f4552433230566f7465733a207369676e61747572652065787069726564000000600082015250565b7f45524332303a206275726e20616d6f756e7420657863656564732062616c616e60008201527f6365000000000000000000000000000000000000000000000000000000000000602082015250565b7f45434453413a20696e76616c6964207369676e6174757265206c656e67746800600082015250565b7f4552433230566f7465733a20696e76616c6964206e6f6e636500000000000000600082015250565b7f4f776e61626c653a206e6577206f776e657220697320746865207a65726f206160008201527f6464726573730000000000000000000000000000000000000000000000000000602082015250565b7f45524332303a20617070726f766520746f20746865207a65726f20616464726560008201527f7373000000000000000000000000000000000000000000000000000000000000602082015250565b7f1901000000000000000000000000000000000000000000000000000000000000600082015250565b7f45524332305065726d69743a206578706972656420646561646c696e65000000600082015250565b7f45524332303a207472616e7366657220616d6f756e742065786365656473206260008201527f616c616e63650000000000000000000000000000000000000000000000000000602082015250565b7f45434453413a20696e76616c6964207369676e6174757265202773272076616c60008201527f7565000000000000000000000000000000000000000000000000000000000000602082015250565b7f5061757361626c653a2070617573656400000000000000000000000000000000600082015250565b7f45434453413a20696e76616c6964207369676e6174757265202776272076616c60008201527f7565000000000000000000000000000000000000000000000000000000000000602082015250565b7f45524332305065726d69743a20696e76616c6964207369676e61747572650000600082015250565b7f45524332303a207472616e7366657220616d6f756e742065786365656473206160008201527f6c6c6f77616e6365000000000000000000000000000000000000000000000000602082015250565b7f4552433230566f7465733a20746f74616c20737570706c79207269736b73206f60008201527f766572666c6f77696e6720766f74657300000000000000000000000000000000602082015250565b7f4f776e61626c653a2063616c6c6572206973206e6f7420746865206f776e6572600082015250565b7f53616665436173743a2076616c756520646f65736e27742066697420696e203260008201527f3234206269747300000000000000000000000000000000000000000000000000602082015250565b7f45524332303a206275726e20616d6f756e74206578636565647320616c6c6f7760008201527f616e636500000000000000000000000000000000000000000000000000000000602082015250565b7f45524332303a206275726e2066726f6d20746865207a65726f2061646472657360008201527f7300000000000000000000000000000000000000000000000000000000000000602082015250565b7f45524332303a207472616e736665722066726f6d20746865207a65726f20616460008201527f6472657373000000000000000000000000000000000000000000000000000000602082015250565b7f53616665436173743a2076616c756520646f65736e27742066697420696e203360008201527f3220626974730000000000000000000000000000000000000000000000000000602082015250565b7f45524332303a20617070726f76652066726f6d20746865207a65726f2061646460008201527f7265737300000000000000000000000000000000000000000000000000000000602082015250565b7f596f75206e656564206174206c6561737420313020746f6b656e730000000000600082015250565b7f45524332303a2064656372656173656420616c6c6f77616e63652062656c6f7760008201527f207a65726f000000000000000000000000000000000000000000000000000000602082015250565b7f45524332303a206d696e7420746f20746865207a65726f206164647265737300600082015250565b61478e81613edc565b811461479957600080fd5b50565b6147a581613efa565b81146147b057600080fd5b50565b6147bc81613f4c565b81146147c757600080fd5b50565b6147d381613f56565b81146147de57600080fd5b50565b6147ea81613f66565b81146147f557600080fd5b5056fea2646970667358221220e00ce1351851c3bc6938d53ec3e0079ad7e5063c07c02063724917faa0f39d4164736f6c63430008020033",
  "linkReferences": {},
  "deployedLinkReferences": {}
}