{
  "_format": "hh-sol-artifact-1",
  "contractName": "NFT",
  "sourceName": "contracts/NFT.sol",
  "abi": [
    {
      "inputs": [
        {
          "internalType": "address",
          "name": "marketplaceAddress",
          "type": "address"
        }
      ],
      "stateMutability": "nonpayable",
      "type": "constructor"
    },
    {
      "anonymous": false,
      "inputs": [
        {
          "indexed": true,
          "internalType": "address",
          "name": "owner",
          "type": "address"
        },
        {
          "indexed": true,
          "internalType": "address",
          "name": "approved",
          "type": "address"
        },
        {
          "indexed": true,
          "internalType": "uint256",
          "name": "tokenId",
          "type": "uint256"
        }
      ],
      "name": "Approval",
      "type": "event"
    },
    {
      "anonymous": false,
      "inputs": [
        {
          "indexed": true,
          "internalType": "address",
          "name": "owner",
          "type": "address"
        },
        {
          "indexed": true,
          "internalType": "address",
          "name": "operator",
          "type": "address"
        },
        {
          "indexed": false,
          "internalType": "bool",
          "name": "approved",
          "type": "bool"
        }
      ],
      "name": "ApprovalForAll",
      "type": "event"
    },
    {
      "anonymous": false,
      "inputs": [
        {
          "indexed": true,
          "internalType": "address",
          "name": "from",
          "type": "address"
        },
        {
          "indexed": true,
          "internalType": "address",
          "name": "to",
          "type": "address"
        },
        {
          "indexed": true,
          "internalType": "uint256",
          "name": "tokenId",
          "type": "uint256"
        }
      ],
      "name": "Transfer",
      "type": "event"
    },
    {
      "stateMutability": "nonpayable",
      "type": "fallback"
    },
    {
      "inputs": [
        {
          "internalType": "address",
          "name": "to",
          "type": "address"
        },
        {
          "internalType": "uint256",
          "name": "tokenId",
          "type": "uint256"
        }
      ],
      "name": "approve",
      "outputs": [],
      "stateMutability": "nonpayable",
      "type": "function"
    },
    {
      "inputs": [
        {
          "internalType": "address",
          "name": "owner",
          "type": "address"
        }
      ],
      "name": "balanceOf",
      "outputs": [
        {
          "internalType": "uint256",
          "name": "",
          "type": "uint256"
        }
      ],
      "stateMutability": "view",
      "type": "function"
    },
    {
      "inputs": [
        {
          "internalType": "uint256",
          "name": "tokenId",
          "type": "uint256"
        }
      ],
      "name": "getApproved",
      "outputs": [
        {
          "internalType": "address",
          "name": "",
          "type": "address"
        }
      ],
      "stateMutability": "view",
      "type": "function"
    },
    {
      "inputs": [
        {
          "internalType": "uint256",
          "name": "_tokenId",
          "type": "uint256"
        }
      ],
      "name": "getUri",
      "outputs": [
        {
          "internalType": "string",
          "name": "",
          "type": "string"
        }
      ],
      "stateMutability": "view",
      "type": "function"
    },
    {
      "inputs": [
        {
          "internalType": "address",
          "name": "owner",
          "type": "address"
        },
        {
          "internalType": "address",
          "name": "operator",
          "type": "address"
        }
      ],
      "name": "isApprovedForAll",
      "outputs": [
        {
          "internalType": "bool",
          "name": "",
          "type": "bool"
        }
      ],
      "stateMutability": "view",
      "type": "function"
    },
    {
      "inputs": [],
      "name": "lastId",
      "outputs": [
        {
          "internalType": "uint256",
          "name": "",
          "type": "uint256"
        }
      ],
      "stateMutability": "view",
      "type": "function"
    },
    {
      "inputs": [
        {
          "internalType": "string",
          "name": "tokenURI",
          "type": "string"
        },
        {
          "internalType": "string",
          "name": "name",
          "type": "string"
        }
      ],
      "name": "mint",
      "outputs": [
        {
          "internalType": "string",
          "name": "",
          "type": "string"
        },
        {
          "internalType": "string",
          "name": "",
          "type": "string"
        },
        {
          "internalType": "uint256",
          "name": "",
          "type": "uint256"
        }
      ],
      "stateMutability": "nonpayable",
      "type": "function"
    },
    {
      "inputs": [],
      "name": "name",
      "outputs": [
        {
          "internalType": "string",
          "name": "",
          "type": "string"
        }
      ],
      "stateMutability": "view",
      "type": "function"
    },
    {
      "inputs": [
        {
          "internalType": "uint256",
          "name": "tokenId",
          "type": "uint256"
        }
      ],
      "name": "ownerOf",
      "outputs": [
        {
          "internalType": "address",
          "name": "",
          "type": "address"
        }
      ],
      "stateMutability": "view",
      "type": "function"
    },
    {
      "inputs": [
        {
          "internalType": "address",
          "name": "from",
          "type": "address"
        },
        {
          "internalType": "address",
          "name": "to",
          "type": "address"
        },
        {
          "internalType": "uint256",
          "name": "tokenId",
          "type": "uint256"
        }
      ],
      "name": "safeTransferFrom",
      "outputs": [],
      "stateMutability": "nonpayable",
      "type": "function"
    },
    {
      "inputs": [
        {
          "internalType": "address",
          "name": "from",
          "type": "address"
        },
        {
          "internalType": "address",
          "name": "to",
          "type": "address"
        },
        {
          "internalType": "uint256",
          "name": "tokenId",
          "type": "uint256"
        },
        {
          "internalType": "bytes",
          "name": "_data",
          "type": "bytes"
        }
      ],
      "name": "safeTransferFrom",
      "outputs": [],
      "stateMutability": "nonpayable",
      "type": "function"
    },
    {
      "inputs": [
        {
          "internalType": "address",
          "name": "operator",
          "type": "address"
        },
        {
          "internalType": "bool",
          "name": "approved",
          "type": "bool"
        }
      ],
      "name": "setApprovalForAll",
      "outputs": [],
      "stateMutability": "nonpayable",
      "type": "function"
    },
    {
      "inputs": [
        {
          "internalType": "bytes4",
          "name": "interfaceId",
          "type": "bytes4"
        }
      ],
      "name": "supportsInterface",
      "outputs": [
        {
          "internalType": "bool",
          "name": "",
          "type": "bool"
        }
      ],
      "stateMutability": "view",
      "type": "function"
    },
    {
      "inputs": [],
      "name": "symbol",
      "outputs": [
        {
          "internalType": "string",
          "name": "",
          "type": "string"
        }
      ],
      "stateMutability": "view",
      "type": "function"
    },
    {
      "inputs": [
        {
          "internalType": "uint256",
          "name": "tokenId",
          "type": "uint256"
        }
      ],
      "name": "tokenURI",
      "outputs": [
        {
          "internalType": "string",
          "name": "",
          "type": "string"
        }
      ],
      "stateMutability": "view",
      "type": "function"
    },
    {
      "inputs": [
        {
          "internalType": "address",
          "name": "from",
          "type": "address"
        },
        {
          "internalType": "address",
          "name": "to",
          "type": "address"
        },
        {
          "internalType": "uint256",
          "name": "tokenId",
          "type": "uint256"
        }
      ],
      "name": "transferFrom",
      "outputs": [],
      "stateMutability": "nonpayable",
      "type": "function"
    },
    {
      "inputs": [
        {
          "internalType": "address",
          "name": "_contractAddress",
          "type": "address"
        }
      ],
      "name": "updateMarketplace",
      "outputs": [
        {
          "internalType": "address",
          "name": "",
          "type": "address"
        }
      ],
      "stateMutability": "nonpayable",
      "type": "function"
    }
  ],
  "bytecode": "0x60806040523480156200001157600080fd5b50604051620030f9380380620030f9833981810160405281019062000037919062000227565b6040518060400160405280600c81526020017f4e6f6e2046756e6769626c6500000000000000000000000000000000000000008152506040518060400160405280600481526020017f4e465446000000000000000000000000000000000000000000000000000000008152508160009080519060200190620000bb92919062000160565b508060019080519060200190620000d492919062000160565b50505080600860006101000a81548173ffffffffffffffffffffffffffffffffffffffff021916908373ffffffffffffffffffffffffffffffffffffffff16021790555033600960006101000a81548173ffffffffffffffffffffffffffffffffffffffff021916908373ffffffffffffffffffffffffffffffffffffffff1602179055505062000306565b8280546200016e9062000287565b90600052602060002090601f016020900481019282620001925760008555620001de565b82601f10620001ad57805160ff1916838001178555620001de565b82800160010185558215620001de579182015b82811115620001dd578251825591602001919060010190620001c0565b5b509050620001ed9190620001f1565b5090565b5b808211156200020c576000816000905550600101620001f2565b5090565b6000815190506200022181620002ec565b92915050565b6000602082840312156200023a57600080fd5b60006200024a8482850162000210565b91505092915050565b6000620002608262000267565b9050919050565b600073ffffffffffffffffffffffffffffffffffffffff82169050919050565b60006002820490506001821680620002a057607f821691505b60208210811415620002b757620002b6620002bd565b5b50919050565b7f4e487b7100000000000000000000000000000000000000000000000000000000600052602260045260246000fd5b620002f78162000253565b81146200030357600080fd5b50565b612de380620003166000396000f3fe608060405234801561001057600080fd5b506004361061010f5760003560e01c80638aa0fdad116100a2578063c1292cc311610071578063c1292cc3146102cc578063c87b56dd146102ea578063da0544aa1461031a578063e985e9c51461034a578063eb6363171461037a57610110565b80638aa0fdad1461024457806395d89b4114610276578063a22cb46514610294578063b88d4fde146102b057610110565b806323b872dd116100de57806323b872dd146101ac57806342842e0e146101c85780636352211e146101e457806370a082311461021457610110565b806301ffc9a71461011257806306fdde0314610142578063081812fc14610160578063095ea7b31461019057610110565b5b005b61012c60048036038101906101279190611ddf565b6103aa565b6040516101399190612251565b60405180910390f35b61014a61048c565b604051610157919061226c565b60405180910390f35b61017a60048036038101906101759190611e9d565b61051e565b60405161018791906121ea565b60405180910390f35b6101aa60048036038101906101a59190611da3565b6105a3565b005b6101c660048036038101906101c19190611c9d565b6106bb565b005b6101e260048036038101906101dd9190611c9d565b61071b565b005b6101fe60048036038101906101f99190611e9d565b61073b565b60405161020b91906121ea565b60405180910390f35b61022e60048036038101906102299190611c38565b6107ed565b60405161023b91906124d3565b60405180910390f35b61025e60048036038101906102599190611e31565b6108a5565b60405161026d9392919061228e565b60405180910390f35b61027e61098e565b60405161028b919061226c565b60405180910390f35b6102ae60048036038101906102a99190611d67565b610a20565b005b6102ca60048036038101906102c59190611cec565b610ba1565b005b6102d4610c03565b6040516102e191906124d3565b60405180910390f35b61030460048036038101906102ff9190611e9d565b610c14565b604051610311919061226c565b60405180910390f35b610334600480360381019061032f9190611e9d565b610d66565b604051610341919061226c565b60405180910390f35b610364600480360381019061035f9190611c61565b610d78565b6040516103719190612251565b60405180910390f35b610394600480360381019061038f9190611c38565b610e0c565b6040516103a191906121ea565b60405180910390f35b60007f80ac58cd000000000000000000000000000000000000000000000000000000007bffffffffffffffffffffffffffffffffffffffffffffffffffffffff1916827bffffffffffffffffffffffffffffffffffffffffffffffffffffffff1916148061047557507f5b5e139f000000000000000000000000000000000000000000000000000000007bffffffffffffffffffffffffffffffffffffffffffffffffffffffff1916827bffffffffffffffffffffffffffffffffffffffffffffffffffffffff1916145b80610485575061048482610eaf565b5b9050919050565b60606000805461049b90612729565b80601f01602080910402602001604051908101604052809291908181526020018280546104c790612729565b80156105145780601f106104e957610100808354040283529160200191610514565b820191906000526020600020905b8154815290600101906020018083116104f757829003601f168201915b5050505050905090565b600061052982610f19565b610568576040517f08c379a000000000000000000000000000000000000000000000000000000000815260040161055f90612433565b60405180910390fd5b6004600083815260200190815260200160002060009054906101000a900473ffffffffffffffffffffffffffffffffffffffff169050919050565b60006105ae8261073b565b90508073ffffffffffffffffffffffffffffffffffffffff168373ffffffffffffffffffffffffffffffffffffffff16141561061f576040517f08c379a000000000000000000000000000000000000000000000000000000000815260040161061690612493565b60405180910390fd5b8073ffffffffffffffffffffffffffffffffffffffff1661063e610f85565b73ffffffffffffffffffffffffffffffffffffffff16148061066d575061066c81610667610f85565b610d78565b5b6106ac576040517f08c379a00000000000000000000000000000000000000000000000000000000081526004016106a390612373565b60405180910390fd5b6106b68383610f8d565b505050565b6106cc6106c6610f85565b82611046565b61070b576040517f08c379a0000000000000000000000000000000000000000000000000000000008152600401610702906124b3565b60405180910390fd5b610716838383611124565b505050565b61073683838360405180602001604052806000815250610ba1565b505050565b6000806002600084815260200190815260200160002060009054906101000a900473ffffffffffffffffffffffffffffffffffffffff169050600073ffffffffffffffffffffffffffffffffffffffff168173ffffffffffffffffffffffffffffffffffffffff1614156107e4576040517f08c379a00000000000000000000000000000000000000000000000000000000081526004016107db906123b3565b60405180910390fd5b80915050919050565b60008073ffffffffffffffffffffffffffffffffffffffff168273ffffffffffffffffffffffffffffffffffffffff16141561085e576040517f08c379a000000000000000000000000000000000000000000000000000000000815260040161085590612393565b60405180910390fd5b600360008373ffffffffffffffffffffffffffffffffffffffff1673ffffffffffffffffffffffffffffffffffffffff168152602001908152602001600020549050919050565b6060806000803390506108b86007611380565b60006108c46007611396565b90506108d082826113a4565b6108da8188611572565b610907600860009054906101000a900473ffffffffffffffffffffffffffffffffffffffff166001610a20565b604051806060016040528088815260200187815260200182815250600a60008381526020019081526020016000206000820151816000019080519060200190610951929190611a5c565b50602082015181600101908051906020019061096e929190611a5c565b506040820151816002015590505086868294509450945050509250925092565b60606001805461099d90612729565b80601f01602080910402602001604051908101604052809291908181526020018280546109c990612729565b8015610a165780601f106109eb57610100808354040283529160200191610a16565b820191906000526020600020905b8154815290600101906020018083116109f957829003601f168201915b5050505050905090565b610a28610f85565b73ffffffffffffffffffffffffffffffffffffffff168273ffffffffffffffffffffffffffffffffffffffff161415610a96576040517f08c379a0000000000000000000000000000000000000000000000000000000008152600401610a8d90612333565b60405180910390fd5b8060056000610aa3610f85565b73ffffffffffffffffffffffffffffffffffffffff1673ffffffffffffffffffffffffffffffffffffffff16815260200190815260200160002060008473ffffffffffffffffffffffffffffffffffffffff1673ffffffffffffffffffffffffffffffffffffffff16815260200190815260200160002060006101000a81548160ff0219169083151502179055508173ffffffffffffffffffffffffffffffffffffffff16610b50610f85565b73ffffffffffffffffffffffffffffffffffffffff167f17307eab39ab6107e8899845ad3d59bd9653f200f220920489ca2b5937696c3183604051610b959190612251565b60405180910390a35050565b610bb2610bac610f85565b83611046565b610bf1576040517f08c379a0000000000000000000000000000000000000000000000000000000008152600401610be8906124b3565b60405180910390fd5b610bfd848484846115e6565b50505050565b6000610c0f6007611396565b905090565b6060610c1f82610f19565b610c5e576040517f08c379a0000000000000000000000000000000000000000000000000000000008152600401610c5590612413565b60405180910390fd5b6000600660008481526020019081526020016000208054610c7e90612729565b80601f0160208091040260200160405190810160405280929190818152602001828054610caa90612729565b8015610cf75780601f10610ccc57610100808354040283529160200191610cf7565b820191906000526020600020905b815481529060010190602001808311610cda57829003601f168201915b505050505090506000610d08611642565b9050600081511415610d1e578192505050610d61565b600082511115610d53578082604051602001610d3b9291906121c6565b60405160208183030381529060405292505050610d61565b610d5c84611659565b925050505b919050565b6060610d7182610c14565b9050919050565b6000600560008473ffffffffffffffffffffffffffffffffffffffff1673ffffffffffffffffffffffffffffffffffffffff16815260200190815260200160002060008373ffffffffffffffffffffffffffffffffffffffff1673ffffffffffffffffffffffffffffffffffffffff16815260200190815260200160002060009054906101000a900460ff16905092915050565b6000600960009054906101000a900473ffffffffffffffffffffffffffffffffffffffff1673ffffffffffffffffffffffffffffffffffffffff163373ffffffffffffffffffffffffffffffffffffffff1614610e6857600080fd5b81600860006101000a81548173ffffffffffffffffffffffffffffffffffffffff021916908373ffffffffffffffffffffffffffffffffffffffff16021790559050919050565b60007f01ffc9a7000000000000000000000000000000000000000000000000000000007bffffffffffffffffffffffffffffffffffffffffffffffffffffffff1916827bffffffffffffffffffffffffffffffffffffffffffffffffffffffff1916149050919050565b60008073ffffffffffffffffffffffffffffffffffffffff166002600084815260200190815260200160002060009054906101000a900473ffffffffffffffffffffffffffffffffffffffff1673ffffffffffffffffffffffffffffffffffffffff1614159050919050565b600033905090565b816004600083815260200190815260200160002060006101000a81548173ffffffffffffffffffffffffffffffffffffffff021916908373ffffffffffffffffffffffffffffffffffffffff160217905550808273ffffffffffffffffffffffffffffffffffffffff166110008361073b565b73ffffffffffffffffffffffffffffffffffffffff167f8c5be1e5ebec7d5bd14f71427d1e84f3dd0314c0f7b2291e5b200ac8c7c3b92560405160405180910390a45050565b600061105182610f19565b611090576040517f08c379a000000000000000000000000000000000000000000000000000000000815260040161108790612353565b60405180910390fd5b600061109b8361073b565b90508073ffffffffffffffffffffffffffffffffffffffff168473ffffffffffffffffffffffffffffffffffffffff16148061110a57508373ffffffffffffffffffffffffffffffffffffffff166110f28461051e565b73ffffffffffffffffffffffffffffffffffffffff16145b8061111b575061111a8185610d78565b5b91505092915050565b8273ffffffffffffffffffffffffffffffffffffffff166111448261073b565b73ffffffffffffffffffffffffffffffffffffffff161461119a576040517f08c379a000000000000000000000000000000000000000000000000000000000815260040161119190612453565b60405180910390fd5b600073ffffffffffffffffffffffffffffffffffffffff168273ffffffffffffffffffffffffffffffffffffffff16141561120a576040517f08c379a000000000000000000000000000000000000000000000000000000000815260040161120190612313565b60405180910390fd5b611215838383611700565b611220600082610f8d565b6001600360008573ffffffffffffffffffffffffffffffffffffffff1673ffffffffffffffffffffffffffffffffffffffff1681526020019081526020016000206000828254611270919061263f565b925050819055506001600360008473ffffffffffffffffffffffffffffffffffffffff1673ffffffffffffffffffffffffffffffffffffffff16815260200190815260200160002060008282546112c791906125b8565b92505081905550816002600083815260200190815260200160002060006101000a81548173ffffffffffffffffffffffffffffffffffffffff021916908373ffffffffffffffffffffffffffffffffffffffff160217905550808273ffffffffffffffffffffffffffffffffffffffff168473ffffffffffffffffffffffffffffffffffffffff167fddf252ad1be2c89b69c2b068fc378daa952ba7f163c4a11628f55a4df523b3ef60405160405180910390a4505050565b6001816000016000828254019250508190555050565b600081600001549050919050565b600073ffffffffffffffffffffffffffffffffffffffff168273ffffffffffffffffffffffffffffffffffffffff161415611414576040517f08c379a000000000000000000000000000000000000000000000000000000000815260040161140b906123f3565b60405180910390fd5b61141d81610f19565b1561145d576040517f08c379a0000000000000000000000000000000000000000000000000000000008152600401611454906122f3565b60405180910390fd5b61146960008383611700565b6001600360008473ffffffffffffffffffffffffffffffffffffffff1673ffffffffffffffffffffffffffffffffffffffff16815260200190815260200160002060008282546114b991906125b8565b92505081905550816002600083815260200190815260200160002060006101000a81548173ffffffffffffffffffffffffffffffffffffffff021916908373ffffffffffffffffffffffffffffffffffffffff160217905550808273ffffffffffffffffffffffffffffffffffffffff16600073ffffffffffffffffffffffffffffffffffffffff167fddf252ad1be2c89b69c2b068fc378daa952ba7f163c4a11628f55a4df523b3ef60405160405180910390a45050565b61157b82610f19565b6115ba576040517f08c379a00000000000000000000000000000000000000000000000000000000081526004016115b1906123d3565b60405180910390fd5b806006600084815260200190815260200160002090805190602001906115e1929190611a5c565b505050565b6115f1848484611124565b6115fd84848484611705565b61163c576040517f08c379a0000000000000000000000000000000000000000000000000000000008152600401611633906122d3565b60405180910390fd5b50505050565b606060405180602001604052806000815250905090565b606061166482610f19565b6116a3576040517f08c379a000000000000000000000000000000000000000000000000000000000815260040161169a90612473565b60405180910390fd5b60006116ad611642565b905060008151116116cd57604051806020016040528060008152506116f8565b806116d78461189c565b6040516020016116e89291906121c6565b6040516020818303038152906040525b915050919050565b505050565b60006117268473ffffffffffffffffffffffffffffffffffffffff16611a49565b1561188f578373ffffffffffffffffffffffffffffffffffffffff1663150b7a0261174f610f85565b8786866040518563ffffffff1660e01b81526004016117719493929190612205565b602060405180830381600087803b15801561178b57600080fd5b505af19250505080156117bc57506040513d601f19601f820116820180604052508101906117b99190611e08565b60015b61183f573d80600081146117ec576040519150601f19603f3d011682016040523d82523d6000602084013e6117f1565b606091505b50600081511415611837576040517f08c379a000000000000000000000000000000000000000000000000000000000815260040161182e906122d3565b60405180910390fd5b805181602001fd5b63150b7a0260e01b7bffffffffffffffffffffffffffffffffffffffffffffffffffffffff1916817bffffffffffffffffffffffffffffffffffffffffffffffffffffffff191614915050611894565b600190505b949350505050565b606060008214156118e4576040518060400160405280600181526020017f30000000000000000000000000000000000000000000000000000000000000008152509050611a44565b600082905060005b600082146119165780806118ff9061278c565b915050600a8261190f919061260e565b91506118ec565b60008167ffffffffffffffff811115611958577f4e487b7100000000000000000000000000000000000000000000000000000000600052604160045260246000fd5b6040519080825280601f01601f19166020018201604052801561198a5781602001600182028036833780820191505090505b5090505b60008514611a3d576001826119a3919061263f565b9150600a856119b291906127d5565b60306119be91906125b8565b60f81b8183815181106119fa577f4e487b7100000000000000000000000000000000000000000000000000000000600052603260045260246000fd5b60200101907effffffffffffffffffffffffffffffffffffffffffffffffffffffffffffff1916908160001a905350600a85611a36919061260e565b945061198e565b8093505050505b919050565b600080823b905060008111915050919050565b828054611a6890612729565b90600052602060002090601f016020900481019282611a8a5760008555611ad1565b82601f10611aa357805160ff1916838001178555611ad1565b82800160010185558215611ad1579182015b82811115611ad0578251825591602001919060010190611ab5565b5b509050611ade9190611ae2565b5090565b5b80821115611afb576000816000905550600101611ae3565b5090565b6000611b12611b0d84612513565b6124ee565b905082815260208101848484011115611b2a57600080fd5b611b358482856126e7565b509392505050565b6000611b50611b4b84612544565b6124ee565b905082815260208101848484011115611b6857600080fd5b611b738482856126e7565b509392505050565b600081359050611b8a81612d51565b92915050565b600081359050611b9f81612d68565b92915050565b600081359050611bb481612d7f565b92915050565b600081519050611bc981612d7f565b92915050565b600082601f830112611be057600080fd5b8135611bf0848260208601611aff565b91505092915050565b600082601f830112611c0a57600080fd5b8135611c1a848260208601611b3d565b91505092915050565b600081359050611c3281612d96565b92915050565b600060208284031215611c4a57600080fd5b6000611c5884828501611b7b565b91505092915050565b60008060408385031215611c7457600080fd5b6000611c8285828601611b7b565b9250506020611c9385828601611b7b565b9150509250929050565b600080600060608486031215611cb257600080fd5b6000611cc086828701611b7b565b9350506020611cd186828701611b7b565b9250506040611ce286828701611c23565b9150509250925092565b60008060008060808587031215611d0257600080fd5b6000611d1087828801611b7b565b9450506020611d2187828801611b7b565b9350506040611d3287828801611c23565b925050606085013567ffffffffffffffff811115611d4f57600080fd5b611d5b87828801611bcf565b91505092959194509250565b60008060408385031215611d7a57600080fd5b6000611d8885828601611b7b565b9250506020611d9985828601611b90565b9150509250929050565b60008060408385031215611db657600080fd5b6000611dc485828601611b7b565b9250506020611dd585828601611c23565b9150509250929050565b600060208284031215611df157600080fd5b6000611dff84828501611ba5565b91505092915050565b600060208284031215611e1a57600080fd5b6000611e2884828501611bba565b91505092915050565b60008060408385031215611e4457600080fd5b600083013567ffffffffffffffff811115611e5e57600080fd5b611e6a85828601611bf9565b925050602083013567ffffffffffffffff811115611e8757600080fd5b611e9385828601611bf9565b9150509250929050565b600060208284031215611eaf57600080fd5b6000611ebd84828501611c23565b91505092915050565b611ecf81612673565b82525050565b611ede81612685565b82525050565b6000611eef82612575565b611ef9818561258b565b9350611f098185602086016126f6565b611f12816128c2565b840191505092915050565b6000611f2882612580565b611f32818561259c565b9350611f428185602086016126f6565b611f4b816128c2565b840191505092915050565b6000611f6182612580565b611f6b81856125ad565b9350611f7b8185602086016126f6565b80840191505092915050565b6000611f9460328361259c565b9150611f9f826128d3565b604082019050919050565b6000611fb7601c8361259c565b9150611fc282612922565b602082019050919050565b6000611fda60248361259c565b9150611fe58261294b565b604082019050919050565b6000611ffd60198361259c565b91506120088261299a565b602082019050919050565b6000612020602c8361259c565b915061202b826129c3565b604082019050919050565b600061204360388361259c565b915061204e82612a12565b604082019050919050565b6000612066602a8361259c565b915061207182612a61565b604082019050919050565b600061208960298361259c565b915061209482612ab0565b604082019050919050565b60006120ac602e8361259c565b91506120b782612aff565b604082019050919050565b60006120cf60208361259c565b91506120da82612b4e565b602082019050919050565b60006120f260318361259c565b91506120fd82612b77565b604082019050919050565b6000612115602c8361259c565b915061212082612bc6565b604082019050919050565b600061213860298361259c565b915061214382612c15565b604082019050919050565b600061215b602f8361259c565b915061216682612c64565b604082019050919050565b600061217e60218361259c565b915061218982612cb3565b604082019050919050565b60006121a160318361259c565b91506121ac82612d02565b604082019050919050565b6121c0816126dd565b82525050565b60006121d28285611f56565b91506121de8284611f56565b91508190509392505050565b60006020820190506121ff6000830184611ec6565b92915050565b600060808201905061221a6000830187611ec6565b6122276020830186611ec6565b61223460408301856121b7565b81810360608301526122468184611ee4565b905095945050505050565b60006020820190506122666000830184611ed5565b92915050565b600060208201905081810360008301526122868184611f1d565b905092915050565b600060608201905081810360008301526122a88186611f1d565b905081810360208301526122bc8185611f1d565b90506122cb60408301846121b7565b949350505050565b600060208201905081810360008301526122ec81611f87565b9050919050565b6000602082019050818103600083015261230c81611faa565b9050919050565b6000602082019050818103600083015261232c81611fcd565b9050919050565b6000602082019050818103600083015261234c81611ff0565b9050919050565b6000602082019050818103600083015261236c81612013565b9050919050565b6000602082019050818103600083015261238c81612036565b9050919050565b600060208201905081810360008301526123ac81612059565b9050919050565b600060208201905081810360008301526123cc8161207c565b9050919050565b600060208201905081810360008301526123ec8161209f565b9050919050565b6000602082019050818103600083015261240c816120c2565b9050919050565b6000602082019050818103600083015261242c816120e5565b9050919050565b6000602082019050818103600083015261244c81612108565b9050919050565b6000602082019050818103600083015261246c8161212b565b9050919050565b6000602082019050818103600083015261248c8161214e565b9050919050565b600060208201905081810360008301526124ac81612171565b9050919050565b600060208201905081810360008301526124cc81612194565b9050919050565b60006020820190506124e860008301846121b7565b92915050565b60006124f8612509565b9050612504828261275b565b919050565b6000604051905090565b600067ffffffffffffffff82111561252e5761252d612893565b5b612537826128c2565b9050602081019050919050565b600067ffffffffffffffff82111561255f5761255e612893565b5b612568826128c2565b9050602081019050919050565b600081519050919050565b600081519050919050565b600082825260208201905092915050565b600082825260208201905092915050565b600081905092915050565b60006125c3826126dd565b91506125ce836126dd565b9250827fffffffffffffffffffffffffffffffffffffffffffffffffffffffffffffffff0382111561260357612602612806565b5b828201905092915050565b6000612619826126dd565b9150612624836126dd565b92508261263457612633612835565b5b828204905092915050565b600061264a826126dd565b9150612655836126dd565b92508282101561266857612667612806565b5b828203905092915050565b600061267e826126bd565b9050919050565b60008115159050919050565b60007fffffffff0000000000000000000000000000000000000000000000000000000082169050919050565b600073ffffffffffffffffffffffffffffffffffffffff82169050919050565b6000819050919050565b82818337600083830152505050565b60005b838110156127145780820151818401526020810190506126f9565b83811115612723576000848401525b50505050565b6000600282049050600182168061274157607f821691505b6020821081141561275557612754612864565b5b50919050565b612764826128c2565b810181811067ffffffffffffffff8211171561278357612782612893565b5b80604052505050565b6000612797826126dd565b91507fffffffffffffffffffffffffffffffffffffffffffffffffffffffffffffffff8214156127ca576127c9612806565b5b600182019050919050565b60006127e0826126dd565b91506127eb836126dd565b9250826127fb576127fa612835565b5b828206905092915050565b7f4e487b7100000000000000000000000000000000000000000000000000000000600052601160045260246000fd5b7f4e487b7100000000000000000000000000000000000000000000000000000000600052601260045260246000fd5b7f4e487b7100000000000000000000000000000000000000000000000000000000600052602260045260246000fd5b7f4e487b7100000000000000000000000000000000000000000000000000000000600052604160045260246000fd5b6000601f19601f8301169050919050565b7f4552433732313a207472616e7366657220746f206e6f6e20455243373231526560008201527f63656976657220696d706c656d656e7465720000000000000000000000000000602082015250565b7f4552433732313a20746f6b656e20616c7265616479206d696e74656400000000600082015250565b7f4552433732313a207472616e7366657220746f20746865207a65726f2061646460008201527f7265737300000000000000000000000000000000000000000000000000000000602082015250565b7f4552433732313a20617070726f766520746f2063616c6c657200000000000000600082015250565b7f4552433732313a206f70657261746f7220717565727920666f72206e6f6e657860008201527f697374656e7420746f6b656e0000000000000000000000000000000000000000602082015250565b7f4552433732313a20617070726f76652063616c6c6572206973206e6f74206f7760008201527f6e6572206e6f7220617070726f76656420666f7220616c6c0000000000000000602082015250565b7f4552433732313a2062616c616e636520717565727920666f7220746865207a6560008201527f726f206164647265737300000000000000000000000000000000000000000000602082015250565b7f4552433732313a206f776e657220717565727920666f72206e6f6e657869737460008201527f656e7420746f6b656e0000000000000000000000000000000000000000000000602082015250565b7f45524337323155524953746f726167653a2055524920736574206f66206e6f6e60008201527f6578697374656e7420746f6b656e000000000000000000000000000000000000602082015250565b7f4552433732313a206d696e7420746f20746865207a65726f2061646472657373600082015250565b7f45524337323155524953746f726167653a2055524920717565727920666f722060008201527f6e6f6e6578697374656e7420746f6b656e000000000000000000000000000000602082015250565b7f4552433732313a20617070726f76656420717565727920666f72206e6f6e657860008201527f697374656e7420746f6b656e0000000000000000000000000000000000000000602082015250565b7f4552433732313a207472616e73666572206f6620746f6b656e2074686174206960008201527f73206e6f74206f776e0000000000000000000000000000000000000000000000602082015250565b7f4552433732314d657461646174613a2055524920717565727920666f72206e6f60008201527f6e6578697374656e7420746f6b656e0000000000000000000000000000000000602082015250565b7f4552433732313a20617070726f76616c20746f2063757272656e74206f776e6560008201527f7200000000000000000000000000000000000000000000000000000000000000602082015250565b7f4552433732313a207472616e736665722063616c6c6572206973206e6f74206f60008201527f776e6572206e6f7220617070726f766564000000000000000000000000000000602082015250565b612d5a81612673565b8114612d6557600080fd5b50565b612d7181612685565b8114612d7c57600080fd5b50565b612d8881612691565b8114612d9357600080fd5b50565b612d9f816126dd565b8114612daa57600080fd5b5056fea2646970667358221220e604ea5fec7e771fb5b55082fb3bd346cd46bb10021b408bf3b057bdacaa74ca64736f6c63430008020033",
  "linkReferences": {},
  "deployedLinkReferences": {}
}