{
  "_format": "hh-sol-artifact-1",
  "contractName": "NFT",
  "sourceName": "contracts/NFT.sol",
  "abi": [
    {
      "inputs": [
        {
          "internalType": "address",
          "name": "marketplaceAddress",
          "type": "address"
        }
      ],
      "stateMutability": "nonpayable",
      "type": "constructor"
    },
    {
      "anonymous": false,
      "inputs": [
        {
          "indexed": true,
          "internalType": "address",
          "name": "owner",
          "type": "address"
        },
        {
          "indexed": true,
          "internalType": "address",
          "name": "approved",
          "type": "address"
        },
        {
          "indexed": true,
          "internalType": "uint256",
          "name": "tokenId",
          "type": "uint256"
        }
      ],
      "name": "Approval",
      "type": "event"
    },
    {
      "anonymous": false,
      "inputs": [
        {
          "indexed": true,
          "internalType": "address",
          "name": "owner",
          "type": "address"
        },
        {
          "indexed": true,
          "internalType": "address",
          "name": "operator",
          "type": "address"
        },
        {
          "indexed": false,
          "internalType": "bool",
          "name": "approved",
          "type": "bool"
        }
      ],
      "name": "ApprovalForAll",
      "type": "event"
    },
    {
      "anonymous": false,
      "inputs": [
        {
          "indexed": true,
          "internalType": "address",
          "name": "from",
          "type": "address"
        },
        {
          "indexed": true,
          "internalType": "address",
          "name": "to",
          "type": "address"
        },
        {
          "indexed": true,
          "internalType": "uint256",
          "name": "tokenId",
          "type": "uint256"
        }
      ],
      "name": "Transfer",
      "type": "event"
    },
    {
      "stateMutability": "nonpayable",
      "type": "fallback"
    },
    {
      "inputs": [
        {
          "internalType": "address",
          "name": "to",
          "type": "address"
        },
        {
          "internalType": "uint256",
          "name": "tokenId",
          "type": "uint256"
        }
      ],
      "name": "approve",
      "outputs": [],
      "stateMutability": "nonpayable",
      "type": "function"
    },
    {
      "inputs": [
        {
          "internalType": "address",
          "name": "owner",
          "type": "address"
        }
      ],
      "name": "balanceOf",
      "outputs": [
        {
          "internalType": "uint256",
          "name": "",
          "type": "uint256"
        }
      ],
      "stateMutability": "view",
      "type": "function"
    },
    {
      "inputs": [],
      "name": "fetchMintedNFTs",
      "outputs": [
        {
          "components": [
            {
              "internalType": "string",
              "name": "uri",
              "type": "string"
            },
            {
              "internalType": "string",
              "name": "name",
              "type": "string"
            },
            {
              "internalType": "uint256",
              "name": "id",
              "type": "uint256"
            },
            {
              "internalType": "address",
              "name": "minter",
              "type": "address"
            }
          ],
          "internalType": "struct NFT.MediaData[]",
          "name": "",
          "type": "tuple[]"
        }
      ],
      "stateMutability": "view",
      "type": "function"
    },
    {
      "inputs": [],
      "name": "fetchOwnedNFTs",
      "outputs": [
        {
          "components": [
            {
              "internalType": "string",
              "name": "uri",
              "type": "string"
            },
            {
              "internalType": "string",
              "name": "name",
              "type": "string"
            },
            {
              "internalType": "uint256",
              "name": "id",
              "type": "uint256"
            },
            {
              "internalType": "address",
              "name": "minter",
              "type": "address"
            }
          ],
          "internalType": "struct NFT.MediaData[]",
          "name": "",
          "type": "tuple[]"
        }
      ],
      "stateMutability": "view",
      "type": "function"
    },
    {
      "inputs": [
        {
          "internalType": "uint256",
          "name": "tokenId",
          "type": "uint256"
        }
      ],
      "name": "getApproved",
      "outputs": [
        {
          "internalType": "address",
          "name": "",
          "type": "address"
        }
      ],
      "stateMutability": "view",
      "type": "function"
    },
    {
      "inputs": [
        {
          "internalType": "uint256",
          "name": "_tokenId",
          "type": "uint256"
        }
      ],
      "name": "getUri",
      "outputs": [
        {
          "internalType": "string",
          "name": "",
          "type": "string"
        }
      ],
      "stateMutability": "view",
      "type": "function"
    },
    {
      "inputs": [
        {
          "internalType": "address",
          "name": "owner",
          "type": "address"
        },
        {
          "internalType": "address",
          "name": "operator",
          "type": "address"
        }
      ],
      "name": "isApprovedForAll",
      "outputs": [
        {
          "internalType": "bool",
          "name": "",
          "type": "bool"
        }
      ],
      "stateMutability": "view",
      "type": "function"
    },
    {
      "inputs": [],
      "name": "lastId",
      "outputs": [
        {
          "internalType": "uint256",
          "name": "",
          "type": "uint256"
        }
      ],
      "stateMutability": "view",
      "type": "function"
    },
    {
      "inputs": [
        {
          "internalType": "string",
          "name": "tokenURI",
          "type": "string"
        },
        {
          "internalType": "string",
          "name": "name",
          "type": "string"
        }
      ],
      "name": "mint",
      "outputs": [
        {
          "internalType": "uint256",
          "name": "",
          "type": "uint256"
        }
      ],
      "stateMutability": "nonpayable",
      "type": "function"
    },
    {
      "inputs": [],
      "name": "name",
      "outputs": [
        {
          "internalType": "string",
          "name": "",
          "type": "string"
        }
      ],
      "stateMutability": "view",
      "type": "function"
    },
    {
      "inputs": [
        {
          "internalType": "uint256",
          "name": "tokenId",
          "type": "uint256"
        }
      ],
      "name": "ownerOf",
      "outputs": [
        {
          "internalType": "address",
          "name": "",
          "type": "address"
        }
      ],
      "stateMutability": "view",
      "type": "function"
    },
    {
      "inputs": [
        {
          "internalType": "address",
          "name": "from",
          "type": "address"
        },
        {
          "internalType": "address",
          "name": "to",
          "type": "address"
        },
        {
          "internalType": "uint256",
          "name": "tokenId",
          "type": "uint256"
        }
      ],
      "name": "safeTransferFrom",
      "outputs": [],
      "stateMutability": "nonpayable",
      "type": "function"
    },
    {
      "inputs": [
        {
          "internalType": "address",
          "name": "from",
          "type": "address"
        },
        {
          "internalType": "address",
          "name": "to",
          "type": "address"
        },
        {
          "internalType": "uint256",
          "name": "tokenId",
          "type": "uint256"
        },
        {
          "internalType": "bytes",
          "name": "_data",
          "type": "bytes"
        }
      ],
      "name": "safeTransferFrom",
      "outputs": [],
      "stateMutability": "nonpayable",
      "type": "function"
    },
    {
      "inputs": [
        {
          "internalType": "address",
          "name": "operator",
          "type": "address"
        },
        {
          "internalType": "bool",
          "name": "approved",
          "type": "bool"
        }
      ],
      "name": "setApprovalForAll",
      "outputs": [],
      "stateMutability": "nonpayable",
      "type": "function"
    },
    {
      "inputs": [
        {
          "internalType": "bytes4",
          "name": "interfaceId",
          "type": "bytes4"
        }
      ],
      "name": "supportsInterface",
      "outputs": [
        {
          "internalType": "bool",
          "name": "",
          "type": "bool"
        }
      ],
      "stateMutability": "view",
      "type": "function"
    },
    {
      "inputs": [],
      "name": "symbol",
      "outputs": [
        {
          "internalType": "string",
          "name": "",
          "type": "string"
        }
      ],
      "stateMutability": "view",
      "type": "function"
    },
    {
      "inputs": [
        {
          "internalType": "uint256",
          "name": "tokenId",
          "type": "uint256"
        }
      ],
      "name": "tokenURI",
      "outputs": [
        {
          "internalType": "string",
          "name": "",
          "type": "string"
        }
      ],
      "stateMutability": "view",
      "type": "function"
    },
    {
      "inputs": [
        {
          "internalType": "address",
          "name": "from",
          "type": "address"
        },
        {
          "internalType": "address",
          "name": "to",
          "type": "address"
        },
        {
          "internalType": "uint256",
          "name": "tokenId",
          "type": "uint256"
        }
      ],
      "name": "transferFrom",
      "outputs": [],
      "stateMutability": "nonpayable",
      "type": "function"
    },
    {
      "inputs": [
        {
          "internalType": "address",
          "name": "_contractAddress",
          "type": "address"
        }
      ],
      "name": "updateMarketplace",
      "outputs": [
        {
          "internalType": "address",
          "name": "",
          "type": "address"
        }
      ],
      "stateMutability": "nonpayable",
      "type": "function"
    }
  ],
  "bytecode": "0x60806040523480156200001157600080fd5b506040516200396738038062003967833981810160405281019062000037919062000227565b6040518060400160405280600c81526020017f4e6f6e2046756e6769626c6500000000000000000000000000000000000000008152506040518060400160405280600481526020017f4e465446000000000000000000000000000000000000000000000000000000008152508160009080519060200190620000bb92919062000160565b508060019080519060200190620000d492919062000160565b50505080600860006101000a81548173ffffffffffffffffffffffffffffffffffffffff021916908373ffffffffffffffffffffffffffffffffffffffff16021790555033600960006101000a81548173ffffffffffffffffffffffffffffffffffffffff021916908373ffffffffffffffffffffffffffffffffffffffff1602179055505062000306565b8280546200016e9062000287565b90600052602060002090601f016020900481019282620001925760008555620001de565b82601f10620001ad57805160ff1916838001178555620001de565b82800160010185558215620001de579182015b82811115620001dd578251825591602001919060010190620001c0565b5b509050620001ed9190620001f1565b5090565b5b808211156200020c576000816000905550600101620001f2565b5090565b6000815190506200022181620002ec565b92915050565b6000602082840312156200023a57600080fd5b60006200024a8482850162000210565b91505092915050565b6000620002608262000267565b9050919050565b600073ffffffffffffffffffffffffffffffffffffffff82169050919050565b60006002820490506001821680620002a057607f821691505b60208210811415620002b757620002b6620002bd565b5b50919050565b7f4e487b7100000000000000000000000000000000000000000000000000000000600052602260045260246000fd5b620002f78162000253565b81146200030357600080fd5b50565b61365180620003166000396000f3fe608060405234801561001057600080fd5b50600436106101255760003560e01c80638aa0fdad116100ad578063c87b56dd11610071578063c87b56dd1461031c578063da0544aa1461034c578063e2bc26b21461037c578063e985e9c51461039a578063eb636317146103ca57610126565b80638aa0fdad1461027857806395d89b41146102a8578063a22cb465146102c6578063b88d4fde146102e2578063c1292cc3146102fe57610126565b806323b872dd116100f457806323b872dd146101c257806342842e0e146101de57806344e0e854146101fa5780636352211e1461021857806370a082311461024857610126565b806301ffc9a71461012857806306fdde0314610158578063081812fc14610176578063095ea7b3146101a657610126565b5b005b610142600480360381019061013d91906124dc565b6103fa565b60405161014f9190612aba565b60405180910390f35b6101606104dc565b60405161016d9190612ad5565b60405180910390f35b610190600480360381019061018b919061259a565b61056e565b60405161019d9190612a31565b60405180910390f35b6101c060048036038101906101bb91906124a0565b6105f3565b005b6101dc60048036038101906101d7919061239a565b61070b565b005b6101f860048036038101906101f3919061239a565b61076b565b005b61020261078b565b60405161020f9190612a98565b60405180910390f35b610232600480360381019061022d919061259a565b610aa7565b60405161023f9190612a31565b60405180910390f35b610262600480360381019061025d9190612335565b610b59565b60405161026f9190612cf7565b60405180910390f35b610292600480360381019061028d919061252e565b610c11565b60405161029f9190612cf7565b60405180910390f35b6102b0610d53565b6040516102bd9190612ad5565b60405180910390f35b6102e060048036038101906102db9190612464565b610de5565b005b6102fc60048036038101906102f791906123e9565b610f66565b005b610306610fc8565b6040516103139190612cf7565b60405180910390f35b6103366004803603810190610331919061259a565b610fd9565b6040516103439190612ad5565b60405180910390f35b6103666004803603810190610361919061259a565b61112b565b6040516103739190612ad5565b60405180910390f35b61038461113d565b6040516103919190612a98565b60405180910390f35b6103b460048036038101906103af919061235e565b611437565b6040516103c19190612aba565b60405180910390f35b6103e460048036038101906103df9190612335565b6114cb565b6040516103f19190612a31565b60405180910390f35b60007f80ac58cd000000000000000000000000000000000000000000000000000000007bffffffffffffffffffffffffffffffffffffffffffffffffffffffff1916827bffffffffffffffffffffffffffffffffffffffffffffffffffffffff191614806104c557507f5b5e139f000000000000000000000000000000000000000000000000000000007bffffffffffffffffffffffffffffffffffffffffffffffffffffffff1916827bffffffffffffffffffffffffffffffffffffffffffffffffffffffff1916145b806104d557506104d48261156e565b5b9050919050565b6060600080546104eb90612f97565b80601f016020809104026020016040519081016040528092919081815260200182805461051790612f97565b80156105645780601f1061053957610100808354040283529160200191610564565b820191906000526020600020905b81548152906001019060200180831161054757829003601f168201915b5050505050905090565b6000610579826115d8565b6105b8576040517f08c379a00000000000000000000000000000000000000000000000000000000081526004016105af90612c57565b60405180910390fd5b6004600083815260200190815260200160002060009054906101000a900473ffffffffffffffffffffffffffffffffffffffff169050919050565b60006105fe82610aa7565b90508073ffffffffffffffffffffffffffffffffffffffff168373ffffffffffffffffffffffffffffffffffffffff16141561066f576040517f08c379a000000000000000000000000000000000000000000000000000000000815260040161066690612cb7565b60405180910390fd5b8073ffffffffffffffffffffffffffffffffffffffff1661068e611644565b73ffffffffffffffffffffffffffffffffffffffff1614806106bd57506106bc816106b7611644565b611437565b5b6106fc576040517f08c379a00000000000000000000000000000000000000000000000000000000081526004016106f390612b97565b60405180910390fd5b610706838361164c565b505050565b61071c610716611644565b82611705565b61075b576040517f08c379a000000000000000000000000000000000000000000000000000000000815260040161075290612cd7565b60405180910390fd5b6107668383836117e3565b505050565b61078683838360405180602001604052806000815250610f66565b505050565b606060006107996007611a3f565b90506000808267ffffffffffffffff8111156107de577f4e487b7100000000000000000000000000000000000000000000000000000000600052604160045260246000fd5b60405190808252806020026020018201604052801561081757816020015b61080461211b565b8152602001906001900390816107fc5790505b50905060005b83811015610a9d573373ffffffffffffffffffffffffffffffffffffffff16600a600083815260200190815260200160002060030160009054906101000a900473ffffffffffffffffffffffffffffffffffffffff1673ffffffffffffffffffffffffffffffffffffffff161415610a8a576000600a60008381526020019081526020016000209050806040518060800160405290816000820180546108c290612f97565b80601f01602080910402602001604051908101604052809291908181526020018280546108ee90612f97565b801561093b5780601f106109105761010080835404028352916020019161093b565b820191906000526020600020905b81548152906001019060200180831161091e57829003601f168201915b5050505050815260200160018201805461095490612f97565b80601f016020809104026020016040519081016040528092919081815260200182805461098090612f97565b80156109cd5780601f106109a2576101008083540402835291602001916109cd565b820191906000526020600020905b8154815290600101906020018083116109b057829003601f168201915b50505050508152602001600282015481526020016003820160009054906101000a900473ffffffffffffffffffffffffffffffffffffffff1673ffffffffffffffffffffffffffffffffffffffff1673ffffffffffffffffffffffffffffffffffffffff1681525050838581518110610a6f577f4e487b7100000000000000000000000000000000000000000000000000000000600052603260045260246000fd5b60200260200101819052508380610a8590612ffa565b945050505b8080610a9590612ffa565b91505061081d565b5080935050505090565b6000806002600084815260200190815260200160002060009054906101000a900473ffffffffffffffffffffffffffffffffffffffff169050600073ffffffffffffffffffffffffffffffffffffffff168173ffffffffffffffffffffffffffffffffffffffff161415610b50576040517f08c379a0000000000000000000000000000000000000000000000000000000008152600401610b4790612bd7565b60405180910390fd5b80915050919050565b60008073ffffffffffffffffffffffffffffffffffffffff168273ffffffffffffffffffffffffffffffffffffffff161415610bca576040517f08c379a0000000000000000000000000000000000000000000000000000000008152600401610bc190612bb7565b60405180910390fd5b600360008373ffffffffffffffffffffffffffffffffffffffff1673ffffffffffffffffffffffffffffffffffffffff168152602001908152602001600020549050919050565b600080339050610c216007611a4d565b6000610c2d6007611a3f565b9050610c398282611a63565b610c438186611c31565b610c70600860009054906101000a900473ffffffffffffffffffffffffffffffffffffffff166001610de5565b60405180608001604052808681526020018581526020018281526020018373ffffffffffffffffffffffffffffffffffffffff16815250600a60008381526020019081526020016000206000820151816000019080519060200190610cd6929190612159565b506020820151816001019080519060200190610cf3929190612159565b506040820151816002015560608201518160030160006101000a81548173ffffffffffffffffffffffffffffffffffffffff021916908373ffffffffffffffffffffffffffffffffffffffff160217905550905050809250505092915050565b606060018054610d6290612f97565b80601f0160208091040260200160405190810160405280929190818152602001828054610d8e90612f97565b8015610ddb5780601f10610db057610100808354040283529160200191610ddb565b820191906000526020600020905b815481529060010190602001808311610dbe57829003601f168201915b5050505050905090565b610ded611644565b73ffffffffffffffffffffffffffffffffffffffff168273ffffffffffffffffffffffffffffffffffffffff161415610e5b576040517f08c379a0000000000000000000000000000000000000000000000000000000008152600401610e5290612b57565b60405180910390fd5b8060056000610e68611644565b73ffffffffffffffffffffffffffffffffffffffff1673ffffffffffffffffffffffffffffffffffffffff16815260200190815260200160002060008473ffffffffffffffffffffffffffffffffffffffff1673ffffffffffffffffffffffffffffffffffffffff16815260200190815260200160002060006101000a81548160ff0219169083151502179055508173ffffffffffffffffffffffffffffffffffffffff16610f15611644565b73ffffffffffffffffffffffffffffffffffffffff167f17307eab39ab6107e8899845ad3d59bd9653f200f220920489ca2b5937696c3183604051610f5a9190612aba565b60405180910390a35050565b610f77610f71611644565b83611705565b610fb6576040517f08c379a0000000000000000000000000000000000000000000000000000000008152600401610fad90612cd7565b60405180910390fd5b610fc284848484611ca5565b50505050565b6000610fd46007611a3f565b905090565b6060610fe4826115d8565b611023576040517f08c379a000000000000000000000000000000000000000000000000000000000815260040161101a90612c37565b60405180910390fd5b600060066000848152602001908152602001600020805461104390612f97565b80601f016020809104026020016040519081016040528092919081815260200182805461106f90612f97565b80156110bc5780601f10611091576101008083540402835291602001916110bc565b820191906000526020600020905b81548152906001019060200180831161109f57829003601f168201915b5050505050905060006110cd611d01565b90506000815114156110e3578192505050611126565b600082511115611118578082604051602001611100929190612a0d565b60405160208183030381529060405292505050611126565b61112184611d18565b925050505b919050565b606061113682610fd9565b9050919050565b6060600061114b6007611a3f565b90506000808267ffffffffffffffff811115611190577f4e487b7100000000000000000000000000000000000000000000000000000000600052604160045260246000fd5b6040519080825280602002602001820160405280156111c957816020015b6111b661211b565b8152602001906001900390816111ae5790505b50905060005b8381101561142d573373ffffffffffffffffffffffffffffffffffffffff166112036001836111fe9190612e26565b610aa7565b73ffffffffffffffffffffffffffffffffffffffff16141561141a576000600a600083815260200190815260200160002090508060405180608001604052908160008201805461125290612f97565b80601f016020809104026020016040519081016040528092919081815260200182805461127e90612f97565b80156112cb5780601f106112a0576101008083540402835291602001916112cb565b820191906000526020600020905b8154815290600101906020018083116112ae57829003601f168201915b505050505081526020016001820180546112e490612f97565b80601f016020809104026020016040519081016040528092919081815260200182805461131090612f97565b801561135d5780601f106113325761010080835404028352916020019161135d565b820191906000526020600020905b81548152906001019060200180831161134057829003601f168201915b50505050508152602001600282015481526020016003820160009054906101000a900473ffffffffffffffffffffffffffffffffffffffff1673ffffffffffffffffffffffffffffffffffffffff1673ffffffffffffffffffffffffffffffffffffffff16815250508385815181106113ff577f4e487b7100000000000000000000000000000000000000000000000000000000600052603260045260246000fd5b6020026020010181905250838061141590612ffa565b945050505b808061142590612ffa565b9150506111cf565b5080935050505090565b6000600560008473ffffffffffffffffffffffffffffffffffffffff1673ffffffffffffffffffffffffffffffffffffffff16815260200190815260200160002060008373ffffffffffffffffffffffffffffffffffffffff1673ffffffffffffffffffffffffffffffffffffffff16815260200190815260200160002060009054906101000a900460ff16905092915050565b6000600960009054906101000a900473ffffffffffffffffffffffffffffffffffffffff1673ffffffffffffffffffffffffffffffffffffffff163373ffffffffffffffffffffffffffffffffffffffff161461152757600080fd5b81600860006101000a81548173ffffffffffffffffffffffffffffffffffffffff021916908373ffffffffffffffffffffffffffffffffffffffff16021790559050919050565b60007f01ffc9a7000000000000000000000000000000000000000000000000000000007bffffffffffffffffffffffffffffffffffffffffffffffffffffffff1916827bffffffffffffffffffffffffffffffffffffffffffffffffffffffff1916149050919050565b60008073ffffffffffffffffffffffffffffffffffffffff166002600084815260200190815260200160002060009054906101000a900473ffffffffffffffffffffffffffffffffffffffff1673ffffffffffffffffffffffffffffffffffffffff1614159050919050565b600033905090565b816004600083815260200190815260200160002060006101000a81548173ffffffffffffffffffffffffffffffffffffffff021916908373ffffffffffffffffffffffffffffffffffffffff160217905550808273ffffffffffffffffffffffffffffffffffffffff166116bf83610aa7565b73ffffffffffffffffffffffffffffffffffffffff167f8c5be1e5ebec7d5bd14f71427d1e84f3dd0314c0f7b2291e5b200ac8c7c3b92560405160405180910390a45050565b6000611710826115d8565b61174f576040517f08c379a000000000000000000000000000000000000000000000000000000000815260040161174690612b77565b60405180910390fd5b600061175a83610aa7565b90508073ffffffffffffffffffffffffffffffffffffffff168473ffffffffffffffffffffffffffffffffffffffff1614806117c957508373ffffffffffffffffffffffffffffffffffffffff166117b18461056e565b73ffffffffffffffffffffffffffffffffffffffff16145b806117da57506117d98185611437565b5b91505092915050565b8273ffffffffffffffffffffffffffffffffffffffff1661180382610aa7565b73ffffffffffffffffffffffffffffffffffffffff1614611859576040517f08c379a000000000000000000000000000000000000000000000000000000000815260040161185090612c77565b60405180910390fd5b600073ffffffffffffffffffffffffffffffffffffffff168273ffffffffffffffffffffffffffffffffffffffff1614156118c9576040517f08c379a00000000000000000000000000000000000000000000000000000000081526004016118c090612b37565b60405180910390fd5b6118d4838383611dbf565b6118df60008261164c565b6001600360008573ffffffffffffffffffffffffffffffffffffffff1673ffffffffffffffffffffffffffffffffffffffff168152602001908152602001600020600082825461192f9190612ead565b925050819055506001600360008473ffffffffffffffffffffffffffffffffffffffff1673ffffffffffffffffffffffffffffffffffffffff16815260200190815260200160002060008282546119869190612e26565b92505081905550816002600083815260200190815260200160002060006101000a81548173ffffffffffffffffffffffffffffffffffffffff021916908373ffffffffffffffffffffffffffffffffffffffff160217905550808273ffffffffffffffffffffffffffffffffffffffff168473ffffffffffffffffffffffffffffffffffffffff167fddf252ad1be2c89b69c2b068fc378daa952ba7f163c4a11628f55a4df523b3ef60405160405180910390a4505050565b600081600001549050919050565b6001816000016000828254019250508190555050565b600073ffffffffffffffffffffffffffffffffffffffff168273ffffffffffffffffffffffffffffffffffffffff161415611ad3576040517f08c379a0000000000000000000000000000000000000000000000000000000008152600401611aca90612c17565b60405180910390fd5b611adc816115d8565b15611b1c576040517f08c379a0000000000000000000000000000000000000000000000000000000008152600401611b1390612b17565b60405180910390fd5b611b2860008383611dbf565b6001600360008473ffffffffffffffffffffffffffffffffffffffff1673ffffffffffffffffffffffffffffffffffffffff1681526020019081526020016000206000828254611b789190612e26565b92505081905550816002600083815260200190815260200160002060006101000a81548173ffffffffffffffffffffffffffffffffffffffff021916908373ffffffffffffffffffffffffffffffffffffffff160217905550808273ffffffffffffffffffffffffffffffffffffffff16600073ffffffffffffffffffffffffffffffffffffffff167fddf252ad1be2c89b69c2b068fc378daa952ba7f163c4a11628f55a4df523b3ef60405160405180910390a45050565b611c3a826115d8565b611c79576040517f08c379a0000000000000000000000000000000000000000000000000000000008152600401611c7090612bf7565b60405180910390fd5b80600660008481526020019081526020016000209080519060200190611ca0929190612159565b505050565b611cb08484846117e3565b611cbc84848484611dc4565b611cfb576040517f08c379a0000000000000000000000000000000000000000000000000000000008152600401611cf290612af7565b60405180910390fd5b50505050565b606060405180602001604052806000815250905090565b6060611d23826115d8565b611d62576040517f08c379a0000000000000000000000000000000000000000000000000000000008152600401611d5990612c97565b60405180910390fd5b6000611d6c611d01565b90506000815111611d8c5760405180602001604052806000815250611db7565b80611d9684611f5b565b604051602001611da7929190612a0d565b6040516020818303038152906040525b915050919050565b505050565b6000611de58473ffffffffffffffffffffffffffffffffffffffff16612108565b15611f4e578373ffffffffffffffffffffffffffffffffffffffff1663150b7a02611e0e611644565b8786866040518563ffffffff1660e01b8152600401611e309493929190612a4c565b602060405180830381600087803b158015611e4a57600080fd5b505af1925050508015611e7b57506040513d601f19601f82011682018060405250810190611e789190612505565b60015b611efe573d8060008114611eab576040519150601f19603f3d011682016040523d82523d6000602084013e611eb0565b606091505b50600081511415611ef6576040517f08c379a0000000000000000000000000000000000000000000000000000000008152600401611eed90612af7565b60405180910390fd5b805181602001fd5b63150b7a0260e01b7bffffffffffffffffffffffffffffffffffffffffffffffffffffffff1916817bffffffffffffffffffffffffffffffffffffffffffffffffffffffff191614915050611f53565b600190505b949350505050565b60606000821415611fa3576040518060400160405280600181526020017f30000000000000000000000000000000000000000000000000000000000000008152509050612103565b600082905060005b60008214611fd5578080611fbe90612ffa565b915050600a82611fce9190612e7c565b9150611fab565b60008167ffffffffffffffff811115612017577f4e487b7100000000000000000000000000000000000000000000000000000000600052604160045260246000fd5b6040519080825280601f01601f1916602001820160405280156120495781602001600182028036833780820191505090505b5090505b600085146120fc576001826120629190612ead565b9150600a856120719190613043565b603061207d9190612e26565b60f81b8183815181106120b9577f4e487b7100000000000000000000000000000000000000000000000000000000600052603260045260246000fd5b60200101907effffffffffffffffffffffffffffffffffffffffffffffffffffffffffffff1916908160001a905350600a856120f59190612e7c565b945061204d565b8093505050505b919050565b600080823b905060008111915050919050565b6040518060800160405280606081526020016060815260200160008152602001600073ffffffffffffffffffffffffffffffffffffffff1681525090565b82805461216590612f97565b90600052602060002090601f01602090048101928261218757600085556121ce565b82601f106121a057805160ff19168380011785556121ce565b828001600101855582156121ce579182015b828111156121cd5782518255916020019190600101906121b2565b5b5090506121db91906121df565b5090565b5b808211156121f85760008160009055506001016121e0565b5090565b600061220f61220a84612d37565b612d12565b90508281526020810184848401111561222757600080fd5b612232848285612f55565b509392505050565b600061224d61224884612d68565b612d12565b90508281526020810184848401111561226557600080fd5b612270848285612f55565b509392505050565b600081359050612287816135bf565b92915050565b60008135905061229c816135d6565b92915050565b6000813590506122b1816135ed565b92915050565b6000815190506122c6816135ed565b92915050565b600082601f8301126122dd57600080fd5b81356122ed8482602086016121fc565b91505092915050565b600082601f83011261230757600080fd5b813561231784826020860161223a565b91505092915050565b60008135905061232f81613604565b92915050565b60006020828403121561234757600080fd5b600061235584828501612278565b91505092915050565b6000806040838503121561237157600080fd5b600061237f85828601612278565b925050602061239085828601612278565b9150509250929050565b6000806000606084860312156123af57600080fd5b60006123bd86828701612278565b93505060206123ce86828701612278565b92505060406123df86828701612320565b9150509250925092565b600080600080608085870312156123ff57600080fd5b600061240d87828801612278565b945050602061241e87828801612278565b935050604061242f87828801612320565b925050606085013567ffffffffffffffff81111561244c57600080fd5b612458878288016122cc565b91505092959194509250565b6000806040838503121561247757600080fd5b600061248585828601612278565b92505060206124968582860161228d565b9150509250929050565b600080604083850312156124b357600080fd5b60006124c185828601612278565b92505060206124d285828601612320565b9150509250929050565b6000602082840312156124ee57600080fd5b60006124fc848285016122a2565b91505092915050565b60006020828403121561251757600080fd5b6000612525848285016122b7565b91505092915050565b6000806040838503121561254157600080fd5b600083013567ffffffffffffffff81111561255b57600080fd5b612567858286016122f6565b925050602083013567ffffffffffffffff81111561258457600080fd5b612590858286016122f6565b9150509250929050565b6000602082840312156125ac57600080fd5b60006125ba84828501612320565b91505092915050565b60006125cf8383612985565b905092915050565b6125e081612ee1565b82525050565b6125ef81612ee1565b82525050565b600061260082612da9565b61260a8185612dd7565b93508360208202850161261c85612d99565b8060005b85811015612658578484038952815161263985826125c3565b945061264483612dca565b925060208a01995050600181019050612620565b50829750879550505050505092915050565b61267381612ef3565b82525050565b600061268482612db4565b61268e8185612de8565b935061269e818560208601612f64565b6126a781613130565b840191505092915050565b60006126bd82612dbf565b6126c78185612df9565b93506126d7818560208601612f64565b6126e081613130565b840191505092915050565b60006126f682612dbf565b6127008185612e0a565b9350612710818560208601612f64565b61271981613130565b840191505092915050565b600061272f82612dbf565b6127398185612e1b565b9350612749818560208601612f64565b80840191505092915050565b6000612762603283612e0a565b915061276d82613141565b604082019050919050565b6000612785601c83612e0a565b915061279082613190565b602082019050919050565b60006127a8602483612e0a565b91506127b3826131b9565b604082019050919050565b60006127cb601983612e0a565b91506127d682613208565b602082019050919050565b60006127ee602c83612e0a565b91506127f982613231565b604082019050919050565b6000612811603883612e0a565b915061281c82613280565b604082019050919050565b6000612834602a83612e0a565b915061283f826132cf565b604082019050919050565b6000612857602983612e0a565b91506128628261331e565b604082019050919050565b600061287a602e83612e0a565b91506128858261336d565b604082019050919050565b600061289d602083612e0a565b91506128a8826133bc565b602082019050919050565b60006128c0603183612e0a565b91506128cb826133e5565b604082019050919050565b60006128e3602c83612e0a565b91506128ee82613434565b604082019050919050565b6000612906602983612e0a565b915061291182613483565b604082019050919050565b6000612929602f83612e0a565b9150612934826134d2565b604082019050919050565b600061294c602183612e0a565b915061295782613521565b604082019050919050565b600061296f603183612e0a565b915061297a82613570565b604082019050919050565b600060808301600083015184820360008601526129a282826126b2565b915050602083015184820360208601526129bc82826126b2565b91505060408301516129d160408601826129ef565b5060608301516129e460608601826125d7565b508091505092915050565b6129f881612f4b565b82525050565b612a0781612f4b565b82525050565b6000612a198285612724565b9150612a258284612724565b91508190509392505050565b6000602082019050612a4660008301846125e6565b92915050565b6000608082019050612a6160008301876125e6565b612a6e60208301866125e6565b612a7b60408301856129fe565b8181036060830152612a8d8184612679565b905095945050505050565b60006020820190508181036000830152612ab281846125f5565b905092915050565b6000602082019050612acf600083018461266a565b92915050565b60006020820190508181036000830152612aef81846126eb565b905092915050565b60006020820190508181036000830152612b1081612755565b9050919050565b60006020820190508181036000830152612b3081612778565b9050919050565b60006020820190508181036000830152612b508161279b565b9050919050565b60006020820190508181036000830152612b70816127be565b9050919050565b60006020820190508181036000830152612b90816127e1565b9050919050565b60006020820190508181036000830152612bb081612804565b9050919050565b60006020820190508181036000830152612bd081612827565b9050919050565b60006020820190508181036000830152612bf08161284a565b9050919050565b60006020820190508181036000830152612c108161286d565b9050919050565b60006020820190508181036000830152612c3081612890565b9050919050565b60006020820190508181036000830152612c50816128b3565b9050919050565b60006020820190508181036000830152612c70816128d6565b9050919050565b60006020820190508181036000830152612c90816128f9565b9050919050565b60006020820190508181036000830152612cb08161291c565b9050919050565b60006020820190508181036000830152612cd08161293f565b9050919050565b60006020820190508181036000830152612cf081612962565b9050919050565b6000602082019050612d0c60008301846129fe565b92915050565b6000612d1c612d2d565b9050612d288282612fc9565b919050565b6000604051905090565b600067ffffffffffffffff821115612d5257612d51613101565b5b612d5b82613130565b9050602081019050919050565b600067ffffffffffffffff821115612d8357612d82613101565b5b612d8c82613130565b9050602081019050919050565b6000819050602082019050919050565b600081519050919050565b600081519050919050565b600081519050919050565b6000602082019050919050565b600082825260208201905092915050565b600082825260208201905092915050565b600082825260208201905092915050565b600082825260208201905092915050565b600081905092915050565b6000612e3182612f4b565b9150612e3c83612f4b565b9250827fffffffffffffffffffffffffffffffffffffffffffffffffffffffffffffffff03821115612e7157612e70613074565b5b828201905092915050565b6000612e8782612f4b565b9150612e9283612f4b565b925082612ea257612ea16130a3565b5b828204905092915050565b6000612eb882612f4b565b9150612ec383612f4b565b925082821015612ed657612ed5613074565b5b828203905092915050565b6000612eec82612f2b565b9050919050565b60008115159050919050565b60007fffffffff0000000000000000000000000000000000000000000000000000000082169050919050565b600073ffffffffffffffffffffffffffffffffffffffff82169050919050565b6000819050919050565b82818337600083830152505050565b60005b83811015612f82578082015181840152602081019050612f67565b83811115612f91576000848401525b50505050565b60006002820490506001821680612faf57607f821691505b60208210811415612fc357612fc26130d2565b5b50919050565b612fd282613130565b810181811067ffffffffffffffff82111715612ff157612ff0613101565b5b80604052505050565b600061300582612f4b565b91507fffffffffffffffffffffffffffffffffffffffffffffffffffffffffffffffff82141561303857613037613074565b5b600182019050919050565b600061304e82612f4b565b915061305983612f4b565b925082613069576130686130a3565b5b828206905092915050565b7f4e487b7100000000000000000000000000000000000000000000000000000000600052601160045260246000fd5b7f4e487b7100000000000000000000000000000000000000000000000000000000600052601260045260246000fd5b7f4e487b7100000000000000000000000000000000000000000000000000000000600052602260045260246000fd5b7f4e487b7100000000000000000000000000000000000000000000000000000000600052604160045260246000fd5b6000601f19601f8301169050919050565b7f4552433732313a207472616e7366657220746f206e6f6e20455243373231526560008201527f63656976657220696d706c656d656e7465720000000000000000000000000000602082015250565b7f4552433732313a20746f6b656e20616c7265616479206d696e74656400000000600082015250565b7f4552433732313a207472616e7366657220746f20746865207a65726f2061646460008201527f7265737300000000000000000000000000000000000000000000000000000000602082015250565b7f4552433732313a20617070726f766520746f2063616c6c657200000000000000600082015250565b7f4552433732313a206f70657261746f7220717565727920666f72206e6f6e657860008201527f697374656e7420746f6b656e0000000000000000000000000000000000000000602082015250565b7f4552433732313a20617070726f76652063616c6c6572206973206e6f74206f7760008201527f6e6572206e6f7220617070726f76656420666f7220616c6c0000000000000000602082015250565b7f4552433732313a2062616c616e636520717565727920666f7220746865207a6560008201527f726f206164647265737300000000000000000000000000000000000000000000602082015250565b7f4552433732313a206f776e657220717565727920666f72206e6f6e657869737460008201527f656e7420746f6b656e0000000000000000000000000000000000000000000000602082015250565b7f45524337323155524953746f726167653a2055524920736574206f66206e6f6e60008201527f6578697374656e7420746f6b656e000000000000000000000000000000000000602082015250565b7f4552433732313a206d696e7420746f20746865207a65726f2061646472657373600082015250565b7f45524337323155524953746f726167653a2055524920717565727920666f722060008201527f6e6f6e6578697374656e7420746f6b656e000000000000000000000000000000602082015250565b7f4552433732313a20617070726f76656420717565727920666f72206e6f6e657860008201527f697374656e7420746f6b656e0000000000000000000000000000000000000000602082015250565b7f4552433732313a207472616e73666572206f6620746f6b656e2074686174206960008201527f73206e6f74206f776e0000000000000000000000000000000000000000000000602082015250565b7f4552433732314d657461646174613a2055524920717565727920666f72206e6f60008201527f6e6578697374656e7420746f6b656e0000000000000000000000000000000000602082015250565b7f4552433732313a20617070726f76616c20746f2063757272656e74206f776e6560008201527f7200000000000000000000000000000000000000000000000000000000000000602082015250565b7f4552433732313a207472616e736665722063616c6c6572206973206e6f74206f60008201527f776e6572206e6f7220617070726f766564000000000000000000000000000000602082015250565b6135c881612ee1565b81146135d357600080fd5b50565b6135df81612ef3565b81146135ea57600080fd5b50565b6135f681612eff565b811461360157600080fd5b50565b61360d81612f4b565b811461361857600080fd5b5056fea26469706673582212208577958ab59a23afcf835a4983eb543c14434a59b230cfd655aee3a3531b5e1964736f6c63430008020033",
  "linkReferences": {},
  "deployedLinkReferences": {}
}