{
  "_format": "hh-sol-artifact-1",
  "contractName": "NFTMarket",
  "sourceName": "contracts/NFTMarketplace.sol",
  "abi": [
    {
      "inputs": [],
      "stateMutability": "nonpayable",
      "type": "constructor"
    },
    {
      "anonymous": false,
      "inputs": [
        {
          "indexed": false,
          "internalType": "address",
          "name": "winner",
          "type": "address"
        },
        {
          "indexed": false,
          "internalType": "uint256",
          "name": "amount",
          "type": "uint256"
        }
      ],
      "name": "AuctionEnded",
      "type": "event"
    },
    {
      "anonymous": false,
      "inputs": [
        {
          "indexed": false,
          "internalType": "address",
          "name": "bidder",
          "type": "address"
        },
        {
          "indexed": false,
          "internalType": "uint256",
          "name": "amount",
          "type": "uint256"
        }
      ],
      "name": "HighestBidIncrease",
      "type": "event"
    },
    {
      "anonymous": false,
      "inputs": [
        {
          "indexed": true,
          "internalType": "uint256",
          "name": "itemId",
          "type": "uint256"
        },
        {
          "indexed": true,
          "internalType": "address",
          "name": "nftContract",
          "type": "address"
        },
        {
          "indexed": true,
          "internalType": "uint256",
          "name": "tokenId",
          "type": "uint256"
        },
        {
          "indexed": false,
          "internalType": "address",
          "name": "seller",
          "type": "address"
        },
        {
          "indexed": false,
          "internalType": "address",
          "name": "owner",
          "type": "address"
        },
        {
          "indexed": false,
          "internalType": "address",
          "name": "artist",
          "type": "address"
        },
        {
          "indexed": false,
          "internalType": "uint256",
          "name": "price",
          "type": "uint256"
        },
        {
          "indexed": false,
          "internalType": "bool",
          "name": "sold",
          "type": "bool"
        }
      ],
      "name": "MarketItemCreated",
      "type": "event"
    },
    {
      "stateMutability": "nonpayable",
      "type": "fallback"
    },
    {
      "inputs": [
        {
          "internalType": "uint256",
          "name": "_id",
          "type": "uint256"
        },
        {
          "internalType": "address",
          "name": "nftContract",
          "type": "address"
        }
      ],
      "name": "auctionEnd",
      "outputs": [],
      "stateMutability": "nonpayable",
      "type": "function"
    },
    {
      "inputs": [
        {
          "internalType": "uint256",
          "name": "_id",
          "type": "uint256"
        }
      ],
      "name": "bid",
      "outputs": [],
      "stateMutability": "payable",
      "type": "function"
    },
    {
      "inputs": [
        {
          "internalType": "address",
          "name": "nftContract",
          "type": "address"
        },
        {
          "internalType": "uint256",
          "name": "tokenId",
          "type": "uint256"
        },
        {
          "internalType": "uint256",
          "name": "price",
          "type": "uint256"
        },
        {
          "internalType": "uint256",
          "name": "_biddingTime",
          "type": "uint256"
        },
        {
          "internalType": "uint256",
          "name": "floorPrice",
          "type": "uint256"
        },
        {
          "internalType": "bool",
          "name": "auction",
          "type": "bool"
        }
      ],
      "name": "createMarketItem",
      "outputs": [],
      "stateMutability": "payable",
      "type": "function"
    },
    {
      "inputs": [
        {
          "internalType": "address",
          "name": "nftContract",
          "type": "address"
        },
        {
          "internalType": "uint256",
          "name": "itemId",
          "type": "uint256"
        }
      ],
      "name": "createMarketSale",
      "outputs": [],
      "stateMutability": "payable",
      "type": "function"
    },
    {
      "inputs": [],
      "name": "fetchItemsCreated",
      "outputs": [
        {
          "components": [
            {
              "internalType": "uint256",
              "name": "itemId",
              "type": "uint256"
            },
            {
              "internalType": "address",
              "name": "nftContract",
              "type": "address"
            },
            {
              "internalType": "uint256",
              "name": "tokenId",
              "type": "uint256"
            },
            {
              "internalType": "address payable",
              "name": "seller",
              "type": "address"
            },
            {
              "internalType": "address payable",
              "name": "owner",
              "type": "address"
            },
            {
              "internalType": "address payable",
              "name": "artist",
              "type": "address"
            },
            {
              "internalType": "uint256",
              "name": "price",
              "type": "uint256"
            },
            {
              "internalType": "bool",
              "name": "sold",
              "type": "bool"
            },
            {
              "internalType": "uint256",
              "name": "auctionEndTime",
              "type": "uint256"
            },
            {
              "internalType": "address",
              "name": "highestBidder",
              "type": "address"
            },
            {
              "internalType": "uint256",
              "name": "highestBid",
              "type": "uint256"
            },
            {
              "internalType": "bool",
              "name": "auction",
              "type": "bool"
            },
            {
              "internalType": "uint256",
              "name": "floorPrice",
              "type": "uint256"
            },
            {
              "internalType": "bool",
              "name": "ended",
              "type": "bool"
            }
          ],
          "internalType": "struct NFTMarket.MarketItem[]",
          "name": "",
          "type": "tuple[]"
        }
      ],
      "stateMutability": "view",
      "type": "function"
    },
    {
      "inputs": [],
      "name": "fetchMarketItems",
      "outputs": [
        {
          "components": [
            {
              "internalType": "uint256",
              "name": "itemId",
              "type": "uint256"
            },
            {
              "internalType": "address",
              "name": "nftContract",
              "type": "address"
            },
            {
              "internalType": "uint256",
              "name": "tokenId",
              "type": "uint256"
            },
            {
              "internalType": "address payable",
              "name": "seller",
              "type": "address"
            },
            {
              "internalType": "address payable",
              "name": "owner",
              "type": "address"
            },
            {
              "internalType": "address payable",
              "name": "artist",
              "type": "address"
            },
            {
              "internalType": "uint256",
              "name": "price",
              "type": "uint256"
            },
            {
              "internalType": "bool",
              "name": "sold",
              "type": "bool"
            },
            {
              "internalType": "uint256",
              "name": "auctionEndTime",
              "type": "uint256"
            },
            {
              "internalType": "address",
              "name": "highestBidder",
              "type": "address"
            },
            {
              "internalType": "uint256",
              "name": "highestBid",
              "type": "uint256"
            },
            {
              "internalType": "bool",
              "name": "auction",
              "type": "bool"
            },
            {
              "internalType": "uint256",
              "name": "floorPrice",
              "type": "uint256"
            },
            {
              "internalType": "bool",
              "name": "ended",
              "type": "bool"
            }
          ],
          "internalType": "struct NFTMarket.MarketItem[]",
          "name": "",
          "type": "tuple[]"
        }
      ],
      "stateMutability": "view",
      "type": "function"
    },
    {
      "inputs": [],
      "name": "fetchMyNFTs",
      "outputs": [
        {
          "components": [
            {
              "internalType": "uint256",
              "name": "itemId",
              "type": "uint256"
            },
            {
              "internalType": "address",
              "name": "nftContract",
              "type": "address"
            },
            {
              "internalType": "uint256",
              "name": "tokenId",
              "type": "uint256"
            },
            {
              "internalType": "address payable",
              "name": "seller",
              "type": "address"
            },
            {
              "internalType": "address payable",
              "name": "owner",
              "type": "address"
            },
            {
              "internalType": "address payable",
              "name": "artist",
              "type": "address"
            },
            {
              "internalType": "uint256",
              "name": "price",
              "type": "uint256"
            },
            {
              "internalType": "bool",
              "name": "sold",
              "type": "bool"
            },
            {
              "internalType": "uint256",
              "name": "auctionEndTime",
              "type": "uint256"
            },
            {
              "internalType": "address",
              "name": "highestBidder",
              "type": "address"
            },
            {
              "internalType": "uint256",
              "name": "highestBid",
              "type": "uint256"
            },
            {
              "internalType": "bool",
              "name": "auction",
              "type": "bool"
            },
            {
              "internalType": "uint256",
              "name": "floorPrice",
              "type": "uint256"
            },
            {
              "internalType": "bool",
              "name": "ended",
              "type": "bool"
            }
          ],
          "internalType": "struct NFTMarket.MarketItem[]",
          "name": "",
          "type": "tuple[]"
        }
      ],
      "stateMutability": "view",
      "type": "function"
    },
    {
      "inputs": [
        {
          "internalType": "uint256",
          "name": "_id",
          "type": "uint256"
        }
      ],
      "name": "getHighestBid",
      "outputs": [
        {
          "internalType": "uint256",
          "name": "",
          "type": "uint256"
        }
      ],
      "stateMutability": "view",
      "type": "function"
    },
    {
      "inputs": [],
      "name": "getListingPrice",
      "outputs": [
        {
          "internalType": "uint256",
          "name": "",
          "type": "uint256"
        }
      ],
      "stateMutability": "view",
      "type": "function"
    },
    {
      "inputs": [
        {
          "internalType": "address",
          "name": "",
          "type": "address"
        }
      ],
      "name": "pendingRefunds",
      "outputs": [
        {
          "internalType": "uint256",
          "name": "",
          "type": "uint256"
        }
      ],
      "stateMutability": "view",
      "type": "function"
    },
    {
      "inputs": [
        {
          "internalType": "uint256",
          "name": "newPrice",
          "type": "uint256"
        }
      ],
      "name": "updateListingFee",
      "outputs": [
        {
          "internalType": "uint256",
          "name": "",
          "type": "uint256"
        }
      ],
      "stateMutability": "nonpayable",
      "type": "function"
    },
    {
      "inputs": [],
      "name": "withdraw",
      "outputs": [
        {
          "internalType": "bool",
          "name": "",
          "type": "bool"
        }
      ],
      "stateMutability": "nonpayable",
      "type": "function"
    }
  ],
  "bytecode": "0x60806040526658d15e176280006004556000600560006101000a81548160ff02191690831515021790555034801561003657600080fd5b50600160008190555033600360006101000a81548173ffffffffffffffffffffffffffffffffffffffff021916908373ffffffffffffffffffffffffffffffffffffffff160217905550612c8f8061008f6000396000f3fe6080604052600436106100ab5760003560e01c80638f288644116100645780638f288644146101ac578063b613b114146101e9578063c23b139e14610226578063e5576e7a14610242578063f064c32e1461025e578063f79d91ae14610289576100ac565b80630f08efe0146100bb57806312e85585146100e6578063202e3740146101115780633ccfd60b1461013c578063454a2ab3146101675780638c7b185714610183576100ac565b5b3480156100b857600080fd5b50005b3480156100c757600080fd5b506100d06102c6565b6040516100dd91906126eb565b60405180910390f35b3480156100f257600080fd5b506100fb6106f3565b6040516101089190612808565b60405180910390f35b34801561011d57600080fd5b506101266106fd565b60405161013391906126eb565b60405180910390f35b34801561014857600080fd5b50610151610bae565b60405161015e919061270d565b60405180910390f35b610181600480360381019061017c91906122de565b610cd9565b005b34801561018f57600080fd5b506101aa60048036038101906101a59190612307565b610f03565b005b3480156101b857600080fd5b506101d360048036038101906101ce91906122de565b61131d565b6040516101e09190612808565b60405180910390f35b3480156101f557600080fd5b50610210600480360381019061020b91906121f0565b61133d565b60405161021d9190612808565b60405180910390f35b610240600480360381019061023b9190612219565b611355565b005b61025c60048036038101906102579190612255565b6116bb565b005b34801561026a57600080fd5b50610273611b8c565b60405161028091906126eb565b60405180910390f35b34801561029557600080fd5b506102b060048036038101906102ab91906122de565b61203d565b6040516102bd9190612808565b60405180910390f35b606060006102d460016120aa565b905060006102e260026120aa565b6102ec60016120aa565b6102f6919061294e565b90506000808267ffffffffffffffff81111561033b577f4e487b7100000000000000000000000000000000000000000000000000000000600052604160045260246000fd5b60405190808252806020026020018201604052801561037457816020015b6103616120ce565b8152602001906001900390816103595790505b50905060005b848110156106e857600073ffffffffffffffffffffffffffffffffffffffff16600660006001846103ab919061286d565b815260200190815260200160002060040160009054906101000a900473ffffffffffffffffffffffffffffffffffffffff1673ffffffffffffffffffffffffffffffffffffffff1614156106d55760006006600060018461040c919061286d565b8152602001908152602001600020600001549050600060066000838152602001908152602001600020905080604051806101c0016040529081600082015481526020016001820160009054906101000a900473ffffffffffffffffffffffffffffffffffffffff1673ffffffffffffffffffffffffffffffffffffffff1673ffffffffffffffffffffffffffffffffffffffff168152602001600282015481526020016003820160009054906101000a900473ffffffffffffffffffffffffffffffffffffffff1673ffffffffffffffffffffffffffffffffffffffff1673ffffffffffffffffffffffffffffffffffffffff1681526020016004820160009054906101000a900473ffffffffffffffffffffffffffffffffffffffff1673ffffffffffffffffffffffffffffffffffffffff1673ffffffffffffffffffffffffffffffffffffffff1681526020016005820160009054906101000a900473ffffffffffffffffffffffffffffffffffffffff1673ffffffffffffffffffffffffffffffffffffffff1673ffffffffffffffffffffffffffffffffffffffff168152602001600682015481526020016007820160009054906101000a900460ff16151515158152602001600882015481526020016009820160009054906101000a900473ffffffffffffffffffffffffffffffffffffffff1673ffffffffffffffffffffffffffffffffffffffff1673ffffffffffffffffffffffffffffffffffffffff168152602001600a8201548152602001600b820160009054906101000a900460ff16151515158152602001600c8201548152602001600d820160009054906101000a900460ff1615151515815250508486815181106106b8577f4e487b7100000000000000000000000000000000000000000000000000000000600052603260045260246000fd5b60200260200101819052506001856106d0919061286d565b945050505b80806106e0906129dc565b91505061037a565b508094505050505090565b6000600454905090565b6060600061070b60016120aa565b905060008060005b838110156107b4573373ffffffffffffffffffffffffffffffffffffffff1660066000600184610743919061286d565b815260200190815260200160002060040160009054906101000a900473ffffffffffffffffffffffffffffffffffffffff1673ffffffffffffffffffffffffffffffffffffffff1614156107a15760018361079e919061286d565b92505b80806107ac906129dc565b915050610713565b5060008267ffffffffffffffff8111156107f7577f4e487b7100000000000000000000000000000000000000000000000000000000600052604160045260246000fd5b60405190808252806020026020018201604052801561083057816020015b61081d6120ce565b8152602001906001900390816108155790505b50905060005b84811015610ba3573373ffffffffffffffffffffffffffffffffffffffff1660066000600184610866919061286d565b815260200190815260200160002060040160009054906101000a900473ffffffffffffffffffffffffffffffffffffffff1673ffffffffffffffffffffffffffffffffffffffff161415610b90576000600660006001846108c7919061286d565b8152602001908152602001600020600001549050600060066000838152602001908152602001600020905080604051806101c0016040529081600082015481526020016001820160009054906101000a900473ffffffffffffffffffffffffffffffffffffffff1673ffffffffffffffffffffffffffffffffffffffff1673ffffffffffffffffffffffffffffffffffffffff168152602001600282015481526020016003820160009054906101000a900473ffffffffffffffffffffffffffffffffffffffff1673ffffffffffffffffffffffffffffffffffffffff1673ffffffffffffffffffffffffffffffffffffffff1681526020016004820160009054906101000a900473ffffffffffffffffffffffffffffffffffffffff1673ffffffffffffffffffffffffffffffffffffffff1673ffffffffffffffffffffffffffffffffffffffff1681526020016005820160009054906101000a900473ffffffffffffffffffffffffffffffffffffffff1673ffffffffffffffffffffffffffffffffffffffff1673ffffffffffffffffffffffffffffffffffffffff168152602001600682015481526020016007820160009054906101000a900460ff16151515158152602001600882015481526020016009820160009054906101000a900473ffffffffffffffffffffffffffffffffffffffff1673ffffffffffffffffffffffffffffffffffffffff1673ffffffffffffffffffffffffffffffffffffffff168152602001600a8201548152602001600b820160009054906101000a900460ff16151515158152602001600c8201548152602001600d820160009054906101000a900460ff161515151581525050848681518110610b73577f4e487b7100000000000000000000000000000000000000000000000000000000600052603260045260246000fd5b6020026020010181905250600185610b8b919061286d565b945050505b8080610b9b906129dc565b915050610836565b508094505050505090565b600080600760003373ffffffffffffffffffffffffffffffffffffffff1673ffffffffffffffffffffffffffffffffffffffff16815260200190815260200160002054905060003390506000821115610ccf576000600760008373ffffffffffffffffffffffffffffffffffffffff1673ffffffffffffffffffffffffffffffffffffffff168152602001908152602001600020819055508073ffffffffffffffffffffffffffffffffffffffff166108fc839081150290604051600060405180830381858888f19350505050610cce5781600760008373ffffffffffffffffffffffffffffffffffffffff1673ffffffffffffffffffffffffffffffffffffffff16815260200190815260200160002081905550600092505050610cd6565b5b6001925050505b90565b600033905060003490506006600084815260200190815260200160002060080154421115610d3c576040517f08c379a0000000000000000000000000000000000000000000000000000000008152600401610d3390612788565b60405180910390fd5b60066000848152602001908152602001600020600a01548111610d94576040517f08c379a0000000000000000000000000000000000000000000000000000000008152600401610d8b90612768565b60405180910390fd5b600060066000858152602001908152602001600020600a015414610e555760066000848152602001908152602001600020600a0154600760006006600087815260200190815260200160002060090160009054906101000a900473ffffffffffffffffffffffffffffffffffffffff1673ffffffffffffffffffffffffffffffffffffffff1673ffffffffffffffffffffffffffffffffffffffff1681526020019081526020016000206000828254610e4d919061286d565b925050819055505b816006600085815260200190815260200160002060090160006101000a81548173ffffffffffffffffffffffffffffffffffffffff021916908373ffffffffffffffffffffffffffffffffffffffff1602179055508060066000858152602001908152602001600020600a01819055507fdfea07ab8527bd08519bfa633240757a7bb0a7f3c7adc98e30604ba73c70f4298282604051610ef69291906126c2565b60405180910390a1505050565b6006600083815260200190815260200160002060080154421015610f5c576040517f08c379a0000000000000000000000000000000000000000000000000000000008152600401610f53906127a8565b60405180910390fd5b60066000838152602001908152602001600020600d0160009054906101000a900460ff1615610fc0576040517f08c379a0000000000000000000000000000000000000000000000000000000008152600401610fb790612788565b60405180910390fd5b600160066000848152602001908152602001600020600d0160006101000a81548160ff0219169083151502179055506000600c6103e860066000868152602001908152602001600020600a015461101791906128c3565b61102191906128f4565b905060008160066000868152602001908152602001600020600a0154611047919061294e565b90506006600085815260200190815260200160002060050160009054906101000a900473ffffffffffffffffffffffffffffffffffffffff1673ffffffffffffffffffffffffffffffffffffffff166108fc839081150290604051600060405180830381858888f193505050501580156110c5573d6000803e3d6000fd5b506006600085815260200190815260200160002060030160009054906101000a900473ffffffffffffffffffffffffffffffffffffffff1673ffffffffffffffffffffffffffffffffffffffff166108fc829081150290604051600060405180830381858888f19350505050158015611142573d6000803e3d6000fd5b508273ffffffffffffffffffffffffffffffffffffffff166323b872dd306006600088815260200190815260200160002060090160009054906101000a900473ffffffffffffffffffffffffffffffffffffffff16876040518463ffffffff1660e01b81526004016111b69392919061268b565b600060405180830381600087803b1580156111d057600080fd5b505af11580156111e4573d6000803e3d6000fd5b505050506006600085815260200190815260200160002060090160009054906101000a900473ffffffffffffffffffffffffffffffffffffffff166006600086815260200190815260200160002060040160006101000a81548173ffffffffffffffffffffffffffffffffffffffff021916908373ffffffffffffffffffffffffffffffffffffffff16021790555060016006600086815260200190815260200160002060070160006101000a81548160ff0219169083151502179055506112ac60026120b8565b600360009054906101000a900473ffffffffffffffffffffffffffffffffffffffff1673ffffffffffffffffffffffffffffffffffffffff166108fc6004549081150290604051600060405180830381858888f19350505050158015611316573d6000803e3d6000fd5b5050505050565b600060066000838152602001908152602001600020600a01549050919050565b60076020528060005260406000206000915090505481565b6002600054141561139b576040517f08c379a0000000000000000000000000000000000000000000000000000000008152600401611392906127c8565b60405180910390fd5b600260008190555060006006600083815260200190815260200160002060060154905060006006600084815260200190815260200160002060020154905081341461141b576040517f08c379a000000000000000000000000000000000000000000000000000000000815260040161141290612728565b60405180910390fd5b6000600c6103e83461142d91906128c3565b61143791906128f4565b905060008134611447919061294e565b90506006600086815260200190815260200160002060050160009054906101000a900473ffffffffffffffffffffffffffffffffffffffff1673ffffffffffffffffffffffffffffffffffffffff166108fc839081150290604051600060405180830381858888f193505050501580156114c5573d6000803e3d6000fd5b506006600086815260200190815260200160002060030160009054906101000a900473ffffffffffffffffffffffffffffffffffffffff1673ffffffffffffffffffffffffffffffffffffffff166108fc829081150290604051600060405180830381858888f19350505050158015611542573d6000803e3d6000fd5b508573ffffffffffffffffffffffffffffffffffffffff166323b872dd3033866040518463ffffffff1660e01b81526004016115809392919061268b565b600060405180830381600087803b15801561159a57600080fd5b505af11580156115ae573d6000803e3d6000fd5b50505050336006600087815260200190815260200160002060040160006101000a81548173ffffffffffffffffffffffffffffffffffffffff021916908373ffffffffffffffffffffffffffffffffffffffff16021790555060016006600087815260200190815260200160002060070160006101000a81548160ff02191690831515021790555061164060026120b8565b600360009054906101000a900473ffffffffffffffffffffffffffffffffffffffff1673ffffffffffffffffffffffffffffffffffffffff166108fc6004549081150290604051600060405180830381858888f193505050501580156116aa573d6000803e3d6000fd5b505050505060016000819055505050565b60026000541415611701576040517f08c379a00000000000000000000000000000000000000000000000000000000081526004016116f8906127c8565b60405180910390fd5b60026000819055506000841161174c576040517f08c379a0000000000000000000000000000000000000000000000000000000008152600401611743906127e8565b60405180910390fd5b6004543414611790576040517f08c379a000000000000000000000000000000000000000000000000000000000815260040161178790612748565b60405180910390fd5b61179a60016120b8565b60006117a660016120aa565b9050600084426117b6919061286d565b905060003390506000604051806101c001604052808581526020018b73ffffffffffffffffffffffffffffffffffffffff1681526020018a81526020013373ffffffffffffffffffffffffffffffffffffffff168152602001600073ffffffffffffffffffffffffffffffffffffffff1681526020013373ffffffffffffffffffffffffffffffffffffffff1681526020018981526020016000151581526020018481526020018373ffffffffffffffffffffffffffffffffffffffff168152602001828152602001861515815260200187815260200160001515815250600660008681526020019081526020016000206000820151816000015560208201518160010160006101000a81548173ffffffffffffffffffffffffffffffffffffffff021916908373ffffffffffffffffffffffffffffffffffffffff1602179055506040820151816002015560608201518160030160006101000a81548173ffffffffffffffffffffffffffffffffffffffff021916908373ffffffffffffffffffffffffffffffffffffffff16021790555060808201518160040160006101000a81548173ffffffffffffffffffffffffffffffffffffffff021916908373ffffffffffffffffffffffffffffffffffffffff16021790555060a08201518160050160006101000a81548173ffffffffffffffffffffffffffffffffffffffff021916908373ffffffffffffffffffffffffffffffffffffffff16021790555060c0820151816006015560e08201518160070160006101000a81548160ff02191690831515021790555061010082015181600801556101208201518160090160006101000a81548173ffffffffffffffffffffffffffffffffffffffff021916908373ffffffffffffffffffffffffffffffffffffffff16021790555061014082015181600a015561016082015181600b0160006101000a81548160ff02191690831515021790555061018082015181600c01556101a082015181600d0160006101000a81548160ff0219169083151502179055509050508973ffffffffffffffffffffffffffffffffffffffff166323b872dd33308c6040518463ffffffff1660e01b8152600401611aec9392919061268b565b600060405180830381600087803b158015611b0657600080fd5b505af1158015611b1a573d6000803e3d6000fd5b50505050888a73ffffffffffffffffffffffffffffffffffffffff16857ff6a6e998cdb71a54614f951c87c07828d557c9d2d501f61d4183e344a06445c5336000338e6000604051611b70959493929190612638565b60405180910390a4505050506001600081905550505050505050565b60606000611b9a60016120aa565b905060008060005b83811015611c43573373ffffffffffffffffffffffffffffffffffffffff1660066000600184611bd2919061286d565b815260200190815260200160002060030160009054906101000a900473ffffffffffffffffffffffffffffffffffffffff1673ffffffffffffffffffffffffffffffffffffffff161415611c3057600183611c2d919061286d565b92505b8080611c3b906129dc565b915050611ba2565b5060008267ffffffffffffffff811115611c86577f4e487b7100000000000000000000000000000000000000000000000000000000600052604160045260246000fd5b604051908082528060200260200182016040528015611cbf57816020015b611cac6120ce565b815260200190600190039081611ca45790505b50905060005b84811015612032573373ffffffffffffffffffffffffffffffffffffffff1660066000600184611cf5919061286d565b815260200190815260200160002060030160009054906101000a900473ffffffffffffffffffffffffffffffffffffffff1673ffffffffffffffffffffffffffffffffffffffff16141561201f57600060066000600184611d56919061286d565b8152602001908152602001600020600001549050600060066000838152602001908152602001600020905080604051806101c0016040529081600082015481526020016001820160009054906101000a900473ffffffffffffffffffffffffffffffffffffffff1673ffffffffffffffffffffffffffffffffffffffff1673ffffffffffffffffffffffffffffffffffffffff168152602001600282015481526020016003820160009054906101000a900473ffffffffffffffffffffffffffffffffffffffff1673ffffffffffffffffffffffffffffffffffffffff1673ffffffffffffffffffffffffffffffffffffffff1681526020016004820160009054906101000a900473ffffffffffffffffffffffffffffffffffffffff1673ffffffffffffffffffffffffffffffffffffffff1673ffffffffffffffffffffffffffffffffffffffff1681526020016005820160009054906101000a900473ffffffffffffffffffffffffffffffffffffffff1673ffffffffffffffffffffffffffffffffffffffff1673ffffffffffffffffffffffffffffffffffffffff168152602001600682015481526020016007820160009054906101000a900460ff16151515158152602001600882015481526020016009820160009054906101000a900473ffffffffffffffffffffffffffffffffffffffff1673ffffffffffffffffffffffffffffffffffffffff1673ffffffffffffffffffffffffffffffffffffffff168152602001600a8201548152602001600b820160009054906101000a900460ff16151515158152602001600c8201548152602001600d820160009054906101000a900460ff161515151581525050848681518110612002577f4e487b7100000000000000000000000000000000000000000000000000000000600052603260045260246000fd5b602002602001018190525060018561201a919061286d565b945050505b808061202a906129dc565b915050611cc5565b508094505050505090565b6000600360009054906101000a900473ffffffffffffffffffffffffffffffffffffffff1673ffffffffffffffffffffffffffffffffffffffff163373ffffffffffffffffffffffffffffffffffffffff161461209957600080fd5b816004819055506004549050919050565b600081600001549050919050565b6001816000016000828254019250508190555050565b604051806101c0016040528060008152602001600073ffffffffffffffffffffffffffffffffffffffff16815260200160008152602001600073ffffffffffffffffffffffffffffffffffffffff168152602001600073ffffffffffffffffffffffffffffffffffffffff168152602001600073ffffffffffffffffffffffffffffffffffffffff1681526020016000815260200160001515815260200160008152602001600073ffffffffffffffffffffffffffffffffffffffff16815260200160008152602001600015158152602001600081526020016000151581525090565b6000813590506121c081612c14565b92915050565b6000813590506121d581612c2b565b92915050565b6000813590506121ea81612c42565b92915050565b60006020828403121561220257600080fd5b6000612210848285016121b1565b91505092915050565b6000806040838503121561222c57600080fd5b600061223a858286016121b1565b925050602061224b858286016121db565b9150509250929050565b60008060008060008060c0878903121561226e57600080fd5b600061227c89828a016121b1565b965050602061228d89828a016121db565b955050604061229e89828a016121db565b94505060606122af89828a016121db565b93505060806122c089828a016121db565b92505060a06122d189828a016121c6565b9150509295509295509295565b6000602082840312156122f057600080fd5b60006122fe848285016121db565b91505092915050565b6000806040838503121561231a57600080fd5b6000612328858286016121db565b9250506020612339858286016121b1565b9150509250929050565b600061234f83836124fa565b6101c08301905092915050565b61236581612994565b82525050565b61237481612982565b82525050565b61238381612982565b82525050565b600061239482612833565b61239e818561284b565b93506123a983612823565b8060005b838110156123da5781516123c18882612343565b97506123cc8361283e565b9250506001810190506123ad565b5085935050505092915050565b6123f0816129a6565b82525050565b6123ff816129a6565b82525050565b600061241260408361285c565b915061241d82612a83565b604082019050919050565b600061243560238361285c565b915061244082612ad2565b604082019050919050565b600061245860268361285c565b915061246382612b21565b604082019050919050565b600061247b601d8361285c565b915061248682612b70565b602082019050919050565b600061249e601d8361285c565b91506124a982612b99565b602082019050919050565b60006124c1601f8361285c565b91506124cc82612bc2565b602082019050919050565b60006124e4601c8361285c565b91506124ef82612beb565b602082019050919050565b6101c082016000820151612511600085018261261a565b506020820151612524602085018261236b565b506040820151612537604085018261261a565b50606082015161254a606085018261235c565b50608082015161255d608085018261235c565b5060a082015161257060a085018261235c565b5060c082015161258360c085018261261a565b5060e082015161259660e08501826123e7565b506101008201516125ab61010085018261261a565b506101208201516125c061012085018261236b565b506101408201516125d561014085018261261a565b506101608201516125ea6101608501826123e7565b506101808201516125ff61018085018261261a565b506101a08201516126146101a08501826123e7565b50505050565b612623816129d2565b82525050565b612632816129d2565b82525050565b600060a08201905061264d600083018861237a565b61265a602083018761237a565b612667604083018661237a565b6126746060830185612629565b61268160808301846123f6565b9695505050505050565b60006060820190506126a0600083018661237a565b6126ad602083018561237a565b6126ba6040830184612629565b949350505050565b60006040820190506126d7600083018561237a565b6126e46020830184612629565b9392505050565b600060208201905081810360008301526127058184612389565b905092915050565b600060208201905061272260008301846123f6565b92915050565b6000602082019050818103600083015261274181612405565b9050919050565b6000602082019050818103600083015261276181612428565b9050919050565b600060208201905081810360008301526127818161244b565b9050919050565b600060208201905081810360008301526127a18161246e565b9050919050565b600060208201905081810360008301526127c181612491565b9050919050565b600060208201905081810360008301526127e1816124b4565b9050919050565b60006020820190508181036000830152612801816124d7565b9050919050565b600060208201905061281d6000830184612629565b92915050565b6000819050602082019050919050565b600081519050919050565b6000602082019050919050565b600082825260208201905092915050565b600082825260208201905092915050565b6000612878826129d2565b9150612883836129d2565b9250827fffffffffffffffffffffffffffffffffffffffffffffffffffffffffffffffff038211156128b8576128b7612a25565b5b828201905092915050565b60006128ce826129d2565b91506128d9836129d2565b9250826128e9576128e8612a54565b5b828204905092915050565b60006128ff826129d2565b915061290a836129d2565b9250817fffffffffffffffffffffffffffffffffffffffffffffffffffffffffffffffff048311821515161561294357612942612a25565b5b828202905092915050565b6000612959826129d2565b9150612964836129d2565b92508282101561297757612976612a25565b5b828203905092915050565b600061298d826129b2565b9050919050565b600061299f826129b2565b9050919050565b60008115159050919050565b600073ffffffffffffffffffffffffffffffffffffffff82169050919050565b6000819050919050565b60006129e7826129d2565b91507fffffffffffffffffffffffffffffffffffffffffffffffffffffffffffffffff821415612a1a57612a19612a25565b5b600182019050919050565b7f4e487b7100000000000000000000000000000000000000000000000000000000600052601160045260246000fd5b7f4e487b7100000000000000000000000000000000000000000000000000000000600052601260045260246000fd5b7f506c65617365207375626d6974207468652061736b696e67207072696365206960008201527f6e206f7264657220746f20636f6d706c65746520746865207075726368617365602082015250565b7f5072696365206d75737420626520657175616c20746f206c697374696e67507260008201527f6963650000000000000000000000000000000000000000000000000000000000602082015250565b7f546865726520697320616c7265616479206120686967686572206f722065717560008201527f616c206269640000000000000000000000000000000000000000000000000000602082015250565b7f5468652061756374696f6e2068617320616c726561647920656e646564000000600082015250565b7f5468652061756374696f6e20686173206e6f7420656e64656420796574000000600082015250565b7f5265656e7472616e637947756172643a207265656e7472616e742063616c6c00600082015250565b7f5072696365206d757374206265206174206c6561737420312077656900000000600082015250565b612c1d81612982565b8114612c2857600080fd5b50565b612c34816129a6565b8114612c3f57600080fd5b50565b612c4b816129d2565b8114612c5657600080fd5b5056fea264697066735822122022e7ed900a347be16b2885fc29bb310528b379e5ee0041f39a8593b372852c0764736f6c63430008020033",
  "linkReferences": {},
  "deployedLinkReferences": {}
}