{
  "_format": "hh-sol-artifact-1",
  "contractName": "NFTMarket",
  "sourceName": "contracts/NFTMarketplace.sol",
  "abi": [
    {
      "inputs": [],
      "stateMutability": "nonpayable",
      "type": "constructor"
    },
    {
      "anonymous": false,
      "inputs": [
        {
          "indexed": false,
          "internalType": "address",
          "name": "winner",
          "type": "address"
        },
        {
          "indexed": false,
          "internalType": "uint256",
          "name": "amount",
          "type": "uint256"
        }
      ],
      "name": "AuctionEnded",
      "type": "event"
    },
    {
      "anonymous": false,
      "inputs": [
        {
          "indexed": false,
          "internalType": "address",
          "name": "bidder",
          "type": "address"
        },
        {
          "indexed": false,
          "internalType": "uint256",
          "name": "amount",
          "type": "uint256"
        }
      ],
      "name": "HighestBidIncrease",
      "type": "event"
    },
    {
      "anonymous": false,
      "inputs": [
        {
          "indexed": true,
          "internalType": "uint256",
          "name": "itemId",
          "type": "uint256"
        },
        {
          "indexed": true,
          "internalType": "address",
          "name": "nftContract",
          "type": "address"
        },
        {
          "indexed": true,
          "internalType": "uint256",
          "name": "tokenId",
          "type": "uint256"
        },
        {
          "indexed": false,
          "internalType": "address",
          "name": "seller",
          "type": "address"
        },
        {
          "indexed": false,
          "internalType": "address",
          "name": "owner",
          "type": "address"
        },
        {
          "indexed": false,
          "internalType": "address",
          "name": "artist",
          "type": "address"
        },
        {
          "indexed": false,
          "internalType": "uint256",
          "name": "price",
          "type": "uint256"
        },
        {
          "indexed": false,
          "internalType": "bool",
          "name": "sold",
          "type": "bool"
        }
      ],
      "name": "MarketItemCreated",
      "type": "event"
    },
    {
      "stateMutability": "nonpayable",
      "type": "fallback"
    },
    {
      "inputs": [
        {
          "internalType": "uint256",
          "name": "_id",
          "type": "uint256"
        },
        {
          "internalType": "address",
          "name": "nftContract",
          "type": "address"
        }
      ],
      "name": "auctionEnd",
      "outputs": [],
      "stateMutability": "nonpayable",
      "type": "function"
    },
    {
      "inputs": [
        {
          "internalType": "uint256",
          "name": "_id",
          "type": "uint256"
        }
      ],
      "name": "bid",
      "outputs": [],
      "stateMutability": "payable",
      "type": "function"
    },
    {
      "inputs": [
        {
          "internalType": "address",
          "name": "nftContract",
          "type": "address"
        },
        {
          "internalType": "uint256",
          "name": "tokenId",
          "type": "uint256"
        },
        {
          "internalType": "uint256",
          "name": "price",
          "type": "uint256"
        },
        {
          "internalType": "uint256",
          "name": "_biddingTime",
          "type": "uint256"
        },
        {
          "internalType": "uint256",
          "name": "floorPrice",
          "type": "uint256"
        },
        {
          "internalType": "bool",
          "name": "auction",
          "type": "bool"
        }
      ],
      "name": "createMarketItem",
      "outputs": [],
      "stateMutability": "payable",
      "type": "function"
    },
    {
      "inputs": [
        {
          "internalType": "address",
          "name": "nftContract",
          "type": "address"
        },
        {
          "internalType": "uint256",
          "name": "itemId",
          "type": "uint256"
        }
      ],
      "name": "createMarketSale",
      "outputs": [],
      "stateMutability": "payable",
      "type": "function"
    },
    {
      "inputs": [],
      "name": "fetchItemsCreated",
      "outputs": [
        {
          "components": [
            {
              "internalType": "uint256",
              "name": "itemId",
              "type": "uint256"
            },
            {
              "internalType": "address",
              "name": "nftContract",
              "type": "address"
            },
            {
              "internalType": "uint256",
              "name": "tokenId",
              "type": "uint256"
            },
            {
              "internalType": "address payable",
              "name": "seller",
              "type": "address"
            },
            {
              "internalType": "address payable",
              "name": "owner",
              "type": "address"
            },
            {
              "internalType": "address payable",
              "name": "artist",
              "type": "address"
            },
            {
              "internalType": "uint256",
              "name": "price",
              "type": "uint256"
            },
            {
              "internalType": "bool",
              "name": "sold",
              "type": "bool"
            },
            {
              "internalType": "uint256",
              "name": "auctionEndTime",
              "type": "uint256"
            },
            {
              "internalType": "address",
              "name": "highestBidder",
              "type": "address"
            },
            {
              "internalType": "uint256",
              "name": "highestBid",
              "type": "uint256"
            },
            {
              "internalType": "bool",
              "name": "auction",
              "type": "bool"
            },
            {
              "internalType": "uint256",
              "name": "floorPrice",
              "type": "uint256"
            },
            {
              "internalType": "bool",
              "name": "ended",
              "type": "bool"
            }
          ],
          "internalType": "struct NFTMarket.MarketItem[]",
          "name": "",
          "type": "tuple[]"
        }
      ],
      "stateMutability": "view",
      "type": "function"
    },
    {
      "inputs": [],
      "name": "fetchMarketItems",
      "outputs": [
        {
          "components": [
            {
              "internalType": "uint256",
              "name": "itemId",
              "type": "uint256"
            },
            {
              "internalType": "address",
              "name": "nftContract",
              "type": "address"
            },
            {
              "internalType": "uint256",
              "name": "tokenId",
              "type": "uint256"
            },
            {
              "internalType": "address payable",
              "name": "seller",
              "type": "address"
            },
            {
              "internalType": "address payable",
              "name": "owner",
              "type": "address"
            },
            {
              "internalType": "address payable",
              "name": "artist",
              "type": "address"
            },
            {
              "internalType": "uint256",
              "name": "price",
              "type": "uint256"
            },
            {
              "internalType": "bool",
              "name": "sold",
              "type": "bool"
            },
            {
              "internalType": "uint256",
              "name": "auctionEndTime",
              "type": "uint256"
            },
            {
              "internalType": "address",
              "name": "highestBidder",
              "type": "address"
            },
            {
              "internalType": "uint256",
              "name": "highestBid",
              "type": "uint256"
            },
            {
              "internalType": "bool",
              "name": "auction",
              "type": "bool"
            },
            {
              "internalType": "uint256",
              "name": "floorPrice",
              "type": "uint256"
            },
            {
              "internalType": "bool",
              "name": "ended",
              "type": "bool"
            }
          ],
          "internalType": "struct NFTMarket.MarketItem[]",
          "name": "",
          "type": "tuple[]"
        }
      ],
      "stateMutability": "view",
      "type": "function"
    },
    {
      "inputs": [],
      "name": "fetchMyNFTs",
      "outputs": [
        {
          "components": [
            {
              "internalType": "uint256",
              "name": "itemId",
              "type": "uint256"
            },
            {
              "internalType": "address",
              "name": "nftContract",
              "type": "address"
            },
            {
              "internalType": "uint256",
              "name": "tokenId",
              "type": "uint256"
            },
            {
              "internalType": "address payable",
              "name": "seller",
              "type": "address"
            },
            {
              "internalType": "address payable",
              "name": "owner",
              "type": "address"
            },
            {
              "internalType": "address payable",
              "name": "artist",
              "type": "address"
            },
            {
              "internalType": "uint256",
              "name": "price",
              "type": "uint256"
            },
            {
              "internalType": "bool",
              "name": "sold",
              "type": "bool"
            },
            {
              "internalType": "uint256",
              "name": "auctionEndTime",
              "type": "uint256"
            },
            {
              "internalType": "address",
              "name": "highestBidder",
              "type": "address"
            },
            {
              "internalType": "uint256",
              "name": "highestBid",
              "type": "uint256"
            },
            {
              "internalType": "bool",
              "name": "auction",
              "type": "bool"
            },
            {
              "internalType": "uint256",
              "name": "floorPrice",
              "type": "uint256"
            },
            {
              "internalType": "bool",
              "name": "ended",
              "type": "bool"
            }
          ],
          "internalType": "struct NFTMarket.MarketItem[]",
          "name": "",
          "type": "tuple[]"
        }
      ],
      "stateMutability": "view",
      "type": "function"
    },
    {
      "inputs": [],
      "name": "getListingPrice",
      "outputs": [
        {
          "internalType": "uint256",
          "name": "",
          "type": "uint256"
        }
      ],
      "stateMutability": "view",
      "type": "function"
    },
    {
      "inputs": [
        {
          "internalType": "address",
          "name": "",
          "type": "address"
        }
      ],
      "name": "pendingRefunds",
      "outputs": [
        {
          "internalType": "uint256",
          "name": "",
          "type": "uint256"
        }
      ],
      "stateMutability": "view",
      "type": "function"
    },
    {
      "inputs": [
        {
          "internalType": "uint256",
          "name": "newPrice",
          "type": "uint256"
        }
      ],
      "name": "updateListingFee",
      "outputs": [
        {
          "internalType": "uint256",
          "name": "",
          "type": "uint256"
        }
      ],
      "stateMutability": "nonpayable",
      "type": "function"
    },
    {
      "inputs": [],
      "name": "withdraw",
      "outputs": [
        {
          "internalType": "bool",
          "name": "",
          "type": "bool"
        }
      ],
      "stateMutability": "nonpayable",
      "type": "function"
    }
  ],
  "bytecode": "0x60806040526658d15e176280006004556000600560006101000a81548160ff02191690831515021790555034801561003657600080fd5b50600160008190555033600360006101000a81548173ffffffffffffffffffffffffffffffffffffffff021916908373ffffffffffffffffffffffffffffffffffffffff160217905550612c278061008f6000396000f3fe6080604052600436106100a05760003560e01c80638c7b1857116100645780638c7b185714610178578063b613b114146101a1578063c23b139e146101de578063e5576e7a146101fa578063f064c32e14610216578063f79d91ae14610241576100a1565b80630f08efe0146100b057806312e85585146100db578063202e3740146101065780633ccfd60b14610131578063454a2ab31461015c576100a1565b5b3480156100ad57600080fd5b50005b3480156100bc57600080fd5b506100c561027e565b6040516100d29190612683565b60405180910390f35b3480156100e757600080fd5b506100f06106ab565b6040516100fd91906127a0565b60405180910390f35b34801561011257600080fd5b5061011b6106b5565b6040516101289190612683565b60405180910390f35b34801561013d57600080fd5b50610146610b66565b60405161015391906126a5565b60405180910390f35b61017660048036038101906101719190612276565b610c91565b005b34801561018457600080fd5b5061019f600480360381019061019a919061229f565b610ebb565b005b3480156101ad57600080fd5b506101c860048036038101906101c39190612188565b6112d5565b6040516101d591906127a0565b60405180910390f35b6101f860048036038101906101f391906121b1565b6112ed565b005b610214600480360381019061020f91906121ed565b611653565b005b34801561022257600080fd5b5061022b611b24565b6040516102389190612683565b60405180910390f35b34801561024d57600080fd5b5061026860048036038101906102639190612276565b611fd5565b60405161027591906127a0565b60405180910390f35b6060600061028c6001612042565b9050600061029a6002612042565b6102a46001612042565b6102ae91906128e6565b90506000808267ffffffffffffffff8111156102f3577f4e487b7100000000000000000000000000000000000000000000000000000000600052604160045260246000fd5b60405190808252806020026020018201604052801561032c57816020015b610319612066565b8152602001906001900390816103115790505b50905060005b848110156106a057600073ffffffffffffffffffffffffffffffffffffffff16600660006001846103639190612805565b815260200190815260200160002060040160009054906101000a900473ffffffffffffffffffffffffffffffffffffffff1673ffffffffffffffffffffffffffffffffffffffff16141561068d576000600660006001846103c49190612805565b8152602001908152602001600020600001549050600060066000838152602001908152602001600020905080604051806101c0016040529081600082015481526020016001820160009054906101000a900473ffffffffffffffffffffffffffffffffffffffff1673ffffffffffffffffffffffffffffffffffffffff1673ffffffffffffffffffffffffffffffffffffffff168152602001600282015481526020016003820160009054906101000a900473ffffffffffffffffffffffffffffffffffffffff1673ffffffffffffffffffffffffffffffffffffffff1673ffffffffffffffffffffffffffffffffffffffff1681526020016004820160009054906101000a900473ffffffffffffffffffffffffffffffffffffffff1673ffffffffffffffffffffffffffffffffffffffff1673ffffffffffffffffffffffffffffffffffffffff1681526020016005820160009054906101000a900473ffffffffffffffffffffffffffffffffffffffff1673ffffffffffffffffffffffffffffffffffffffff1673ffffffffffffffffffffffffffffffffffffffff168152602001600682015481526020016007820160009054906101000a900460ff16151515158152602001600882015481526020016009820160009054906101000a900473ffffffffffffffffffffffffffffffffffffffff1673ffffffffffffffffffffffffffffffffffffffff1673ffffffffffffffffffffffffffffffffffffffff168152602001600a8201548152602001600b820160009054906101000a900460ff16151515158152602001600c8201548152602001600d820160009054906101000a900460ff161515151581525050848681518110610670577f4e487b7100000000000000000000000000000000000000000000000000000000600052603260045260246000fd5b60200260200101819052506001856106889190612805565b945050505b808061069890612974565b915050610332565b508094505050505090565b6000600454905090565b606060006106c36001612042565b905060008060005b8381101561076c573373ffffffffffffffffffffffffffffffffffffffff16600660006001846106fb9190612805565b815260200190815260200160002060040160009054906101000a900473ffffffffffffffffffffffffffffffffffffffff1673ffffffffffffffffffffffffffffffffffffffff161415610759576001836107569190612805565b92505b808061076490612974565b9150506106cb565b5060008267ffffffffffffffff8111156107af577f4e487b7100000000000000000000000000000000000000000000000000000000600052604160045260246000fd5b6040519080825280602002602001820160405280156107e857816020015b6107d5612066565b8152602001906001900390816107cd5790505b50905060005b84811015610b5b573373ffffffffffffffffffffffffffffffffffffffff166006600060018461081e9190612805565b815260200190815260200160002060040160009054906101000a900473ffffffffffffffffffffffffffffffffffffffff1673ffffffffffffffffffffffffffffffffffffffff161415610b485760006006600060018461087f9190612805565b8152602001908152602001600020600001549050600060066000838152602001908152602001600020905080604051806101c0016040529081600082015481526020016001820160009054906101000a900473ffffffffffffffffffffffffffffffffffffffff1673ffffffffffffffffffffffffffffffffffffffff1673ffffffffffffffffffffffffffffffffffffffff168152602001600282015481526020016003820160009054906101000a900473ffffffffffffffffffffffffffffffffffffffff1673ffffffffffffffffffffffffffffffffffffffff1673ffffffffffffffffffffffffffffffffffffffff1681526020016004820160009054906101000a900473ffffffffffffffffffffffffffffffffffffffff1673ffffffffffffffffffffffffffffffffffffffff1673ffffffffffffffffffffffffffffffffffffffff1681526020016005820160009054906101000a900473ffffffffffffffffffffffffffffffffffffffff1673ffffffffffffffffffffffffffffffffffffffff1673ffffffffffffffffffffffffffffffffffffffff168152602001600682015481526020016007820160009054906101000a900460ff16151515158152602001600882015481526020016009820160009054906101000a900473ffffffffffffffffffffffffffffffffffffffff1673ffffffffffffffffffffffffffffffffffffffff1673ffffffffffffffffffffffffffffffffffffffff168152602001600a8201548152602001600b820160009054906101000a900460ff16151515158152602001600c8201548152602001600d820160009054906101000a900460ff161515151581525050848681518110610b2b577f4e487b7100000000000000000000000000000000000000000000000000000000600052603260045260246000fd5b6020026020010181905250600185610b439190612805565b945050505b8080610b5390612974565b9150506107ee565b508094505050505090565b600080600760003373ffffffffffffffffffffffffffffffffffffffff1673ffffffffffffffffffffffffffffffffffffffff16815260200190815260200160002054905060003390506000821115610c87576000600760008373ffffffffffffffffffffffffffffffffffffffff1673ffffffffffffffffffffffffffffffffffffffff168152602001908152602001600020819055508073ffffffffffffffffffffffffffffffffffffffff166108fc839081150290604051600060405180830381858888f19350505050610c865781600760008373ffffffffffffffffffffffffffffffffffffffff1673ffffffffffffffffffffffffffffffffffffffff16815260200190815260200160002081905550600092505050610c8e565b5b6001925050505b90565b600033905060003490506006600084815260200190815260200160002060080154421115610cf4576040517f08c379a0000000000000000000000000000000000000000000000000000000008152600401610ceb90612720565b60405180910390fd5b60066000848152602001908152602001600020600a01548111610d4c576040517f08c379a0000000000000000000000000000000000000000000000000000000008152600401610d4390612700565b60405180910390fd5b600060066000858152602001908152602001600020600a015414610e0d5760066000848152602001908152602001600020600a0154600760006006600087815260200190815260200160002060090160009054906101000a900473ffffffffffffffffffffffffffffffffffffffff1673ffffffffffffffffffffffffffffffffffffffff1673ffffffffffffffffffffffffffffffffffffffff1681526020019081526020016000206000828254610e059190612805565b925050819055505b816006600085815260200190815260200160002060090160006101000a81548173ffffffffffffffffffffffffffffffffffffffff021916908373ffffffffffffffffffffffffffffffffffffffff1602179055508060066000858152602001908152602001600020600a01819055507fdfea07ab8527bd08519bfa633240757a7bb0a7f3c7adc98e30604ba73c70f4298282604051610eae92919061265a565b60405180910390a1505050565b6006600083815260200190815260200160002060080154421015610f14576040517f08c379a0000000000000000000000000000000000000000000000000000000008152600401610f0b90612740565b60405180910390fd5b60066000838152602001908152602001600020600d0160009054906101000a900460ff1615610f78576040517f08c379a0000000000000000000000000000000000000000000000000000000008152600401610f6f90612720565b60405180910390fd5b600160066000848152602001908152602001600020600d0160006101000a81548160ff0219169083151502179055506000600c6103e860066000868152602001908152602001600020600a0154610fcf919061285b565b610fd9919061288c565b905060008160066000868152602001908152602001600020600a0154610fff91906128e6565b90506006600085815260200190815260200160002060050160009054906101000a900473ffffffffffffffffffffffffffffffffffffffff1673ffffffffffffffffffffffffffffffffffffffff166108fc839081150290604051600060405180830381858888f1935050505015801561107d573d6000803e3d6000fd5b506006600085815260200190815260200160002060030160009054906101000a900473ffffffffffffffffffffffffffffffffffffffff1673ffffffffffffffffffffffffffffffffffffffff166108fc829081150290604051600060405180830381858888f193505050501580156110fa573d6000803e3d6000fd5b508273ffffffffffffffffffffffffffffffffffffffff166323b872dd306006600088815260200190815260200160002060090160009054906101000a900473ffffffffffffffffffffffffffffffffffffffff16876040518463ffffffff1660e01b815260040161116e93929190612623565b600060405180830381600087803b15801561118857600080fd5b505af115801561119c573d6000803e3d6000fd5b505050506006600085815260200190815260200160002060090160009054906101000a900473ffffffffffffffffffffffffffffffffffffffff166006600086815260200190815260200160002060040160006101000a81548173ffffffffffffffffffffffffffffffffffffffff021916908373ffffffffffffffffffffffffffffffffffffffff16021790555060016006600086815260200190815260200160002060070160006101000a81548160ff0219169083151502179055506112646002612050565b600360009054906101000a900473ffffffffffffffffffffffffffffffffffffffff1673ffffffffffffffffffffffffffffffffffffffff166108fc6004549081150290604051600060405180830381858888f193505050501580156112ce573d6000803e3d6000fd5b5050505050565b60076020528060005260406000206000915090505481565b60026000541415611333576040517f08c379a000000000000000000000000000000000000000000000000000000000815260040161132a90612760565b60405180910390fd5b60026000819055506000600660008381526020019081526020016000206006015490506000600660008481526020019081526020016000206002015490508134146113b3576040517f08c379a00000000000000000000000000000000000000000000000000000000081526004016113aa906126c0565b60405180910390fd5b6000600c6103e8346113c5919061285b565b6113cf919061288c565b9050600081346113df91906128e6565b90506006600086815260200190815260200160002060050160009054906101000a900473ffffffffffffffffffffffffffffffffffffffff1673ffffffffffffffffffffffffffffffffffffffff166108fc839081150290604051600060405180830381858888f1935050505015801561145d573d6000803e3d6000fd5b506006600086815260200190815260200160002060030160009054906101000a900473ffffffffffffffffffffffffffffffffffffffff1673ffffffffffffffffffffffffffffffffffffffff166108fc829081150290604051600060405180830381858888f193505050501580156114da573d6000803e3d6000fd5b508573ffffffffffffffffffffffffffffffffffffffff166323b872dd3033866040518463ffffffff1660e01b815260040161151893929190612623565b600060405180830381600087803b15801561153257600080fd5b505af1158015611546573d6000803e3d6000fd5b50505050336006600087815260200190815260200160002060040160006101000a81548173ffffffffffffffffffffffffffffffffffffffff021916908373ffffffffffffffffffffffffffffffffffffffff16021790555060016006600087815260200190815260200160002060070160006101000a81548160ff0219169083151502179055506115d86002612050565b600360009054906101000a900473ffffffffffffffffffffffffffffffffffffffff1673ffffffffffffffffffffffffffffffffffffffff166108fc6004549081150290604051600060405180830381858888f19350505050158015611642573d6000803e3d6000fd5b505050505060016000819055505050565b60026000541415611699576040517f08c379a000000000000000000000000000000000000000000000000000000000815260040161169090612760565b60405180910390fd5b6002600081905550600084116116e4576040517f08c379a00000000000000000000000000000000000000000000000000000000081526004016116db90612780565b60405180910390fd5b6004543414611728576040517f08c379a000000000000000000000000000000000000000000000000000000000815260040161171f906126e0565b60405180910390fd5b6117326001612050565b600061173e6001612042565b90506000844261174e9190612805565b905060003390506000604051806101c001604052808581526020018b73ffffffffffffffffffffffffffffffffffffffff1681526020018a81526020013373ffffffffffffffffffffffffffffffffffffffff168152602001600073ffffffffffffffffffffffffffffffffffffffff1681526020013373ffffffffffffffffffffffffffffffffffffffff1681526020018981526020016000151581526020018481526020018373ffffffffffffffffffffffffffffffffffffffff168152602001828152602001861515815260200187815260200160001515815250600660008681526020019081526020016000206000820151816000015560208201518160010160006101000a81548173ffffffffffffffffffffffffffffffffffffffff021916908373ffffffffffffffffffffffffffffffffffffffff1602179055506040820151816002015560608201518160030160006101000a81548173ffffffffffffffffffffffffffffffffffffffff021916908373ffffffffffffffffffffffffffffffffffffffff16021790555060808201518160040160006101000a81548173ffffffffffffffffffffffffffffffffffffffff021916908373ffffffffffffffffffffffffffffffffffffffff16021790555060a08201518160050160006101000a81548173ffffffffffffffffffffffffffffffffffffffff021916908373ffffffffffffffffffffffffffffffffffffffff16021790555060c0820151816006015560e08201518160070160006101000a81548160ff02191690831515021790555061010082015181600801556101208201518160090160006101000a81548173ffffffffffffffffffffffffffffffffffffffff021916908373ffffffffffffffffffffffffffffffffffffffff16021790555061014082015181600a015561016082015181600b0160006101000a81548160ff02191690831515021790555061018082015181600c01556101a082015181600d0160006101000a81548160ff0219169083151502179055509050508973ffffffffffffffffffffffffffffffffffffffff166323b872dd33308c6040518463ffffffff1660e01b8152600401611a8493929190612623565b600060405180830381600087803b158015611a9e57600080fd5b505af1158015611ab2573d6000803e3d6000fd5b50505050888a73ffffffffffffffffffffffffffffffffffffffff16857ff6a6e998cdb71a54614f951c87c07828d557c9d2d501f61d4183e344a06445c5336000338e6000604051611b089594939291906125d0565b60405180910390a4505050506001600081905550505050505050565b60606000611b326001612042565b905060008060005b83811015611bdb573373ffffffffffffffffffffffffffffffffffffffff1660066000600184611b6a9190612805565b815260200190815260200160002060030160009054906101000a900473ffffffffffffffffffffffffffffffffffffffff1673ffffffffffffffffffffffffffffffffffffffff161415611bc857600183611bc59190612805565b92505b8080611bd390612974565b915050611b3a565b5060008267ffffffffffffffff811115611c1e577f4e487b7100000000000000000000000000000000000000000000000000000000600052604160045260246000fd5b604051908082528060200260200182016040528015611c5757816020015b611c44612066565b815260200190600190039081611c3c5790505b50905060005b84811015611fca573373ffffffffffffffffffffffffffffffffffffffff1660066000600184611c8d9190612805565b815260200190815260200160002060030160009054906101000a900473ffffffffffffffffffffffffffffffffffffffff1673ffffffffffffffffffffffffffffffffffffffff161415611fb757600060066000600184611cee9190612805565b8152602001908152602001600020600001549050600060066000838152602001908152602001600020905080604051806101c0016040529081600082015481526020016001820160009054906101000a900473ffffffffffffffffffffffffffffffffffffffff1673ffffffffffffffffffffffffffffffffffffffff1673ffffffffffffffffffffffffffffffffffffffff168152602001600282015481526020016003820160009054906101000a900473ffffffffffffffffffffffffffffffffffffffff1673ffffffffffffffffffffffffffffffffffffffff1673ffffffffffffffffffffffffffffffffffffffff1681526020016004820160009054906101000a900473ffffffffffffffffffffffffffffffffffffffff1673ffffffffffffffffffffffffffffffffffffffff1673ffffffffffffffffffffffffffffffffffffffff1681526020016005820160009054906101000a900473ffffffffffffffffffffffffffffffffffffffff1673ffffffffffffffffffffffffffffffffffffffff1673ffffffffffffffffffffffffffffffffffffffff168152602001600682015481526020016007820160009054906101000a900460ff16151515158152602001600882015481526020016009820160009054906101000a900473ffffffffffffffffffffffffffffffffffffffff1673ffffffffffffffffffffffffffffffffffffffff1673ffffffffffffffffffffffffffffffffffffffff168152602001600a8201548152602001600b820160009054906101000a900460ff16151515158152602001600c8201548152602001600d820160009054906101000a900460ff161515151581525050848681518110611f9a577f4e487b7100000000000000000000000000000000000000000000000000000000600052603260045260246000fd5b6020026020010181905250600185611fb29190612805565b945050505b8080611fc290612974565b915050611c5d565b508094505050505090565b6000600360009054906101000a900473ffffffffffffffffffffffffffffffffffffffff1673ffffffffffffffffffffffffffffffffffffffff163373ffffffffffffffffffffffffffffffffffffffff161461203157600080fd5b816004819055506004549050919050565b600081600001549050919050565b6001816000016000828254019250508190555050565b604051806101c0016040528060008152602001600073ffffffffffffffffffffffffffffffffffffffff16815260200160008152602001600073ffffffffffffffffffffffffffffffffffffffff168152602001600073ffffffffffffffffffffffffffffffffffffffff168152602001600073ffffffffffffffffffffffffffffffffffffffff1681526020016000815260200160001515815260200160008152602001600073ffffffffffffffffffffffffffffffffffffffff16815260200160008152602001600015158152602001600081526020016000151581525090565b60008135905061215881612bac565b92915050565b60008135905061216d81612bc3565b92915050565b60008135905061218281612bda565b92915050565b60006020828403121561219a57600080fd5b60006121a884828501612149565b91505092915050565b600080604083850312156121c457600080fd5b60006121d285828601612149565b92505060206121e385828601612173565b9150509250929050565b60008060008060008060c0878903121561220657600080fd5b600061221489828a01612149565b965050602061222589828a01612173565b955050604061223689828a01612173565b945050606061224789828a01612173565b935050608061225889828a01612173565b92505060a061226989828a0161215e565b9150509295509295509295565b60006020828403121561228857600080fd5b600061229684828501612173565b91505092915050565b600080604083850312156122b257600080fd5b60006122c085828601612173565b92505060206122d185828601612149565b9150509250929050565b60006122e78383612492565b6101c08301905092915050565b6122fd8161292c565b82525050565b61230c8161291a565b82525050565b61231b8161291a565b82525050565b600061232c826127cb565b61233681856127e3565b9350612341836127bb565b8060005b8381101561237257815161235988826122db565b9750612364836127d6565b925050600181019050612345565b5085935050505092915050565b6123888161293e565b82525050565b6123978161293e565b82525050565b60006123aa6040836127f4565b91506123b582612a1b565b604082019050919050565b60006123cd6023836127f4565b91506123d882612a6a565b604082019050919050565b60006123f06026836127f4565b91506123fb82612ab9565b604082019050919050565b6000612413601d836127f4565b915061241e82612b08565b602082019050919050565b6000612436601d836127f4565b915061244182612b31565b602082019050919050565b6000612459601f836127f4565b915061246482612b5a565b602082019050919050565b600061247c601c836127f4565b915061248782612b83565b602082019050919050565b6101c0820160008201516124a960008501826125b2565b5060208201516124bc6020850182612303565b5060408201516124cf60408501826125b2565b5060608201516124e260608501826122f4565b5060808201516124f560808501826122f4565b5060a082015161250860a08501826122f4565b5060c082015161251b60c08501826125b2565b5060e082015161252e60e085018261237f565b506101008201516125436101008501826125b2565b50610120820151612558610120850182612303565b5061014082015161256d6101408501826125b2565b5061016082015161258261016085018261237f565b506101808201516125976101808501826125b2565b506101a08201516125ac6101a085018261237f565b50505050565b6125bb8161296a565b82525050565b6125ca8161296a565b82525050565b600060a0820190506125e56000830188612312565b6125f26020830187612312565b6125ff6040830186612312565b61260c60608301856125c1565b612619608083018461238e565b9695505050505050565b60006060820190506126386000830186612312565b6126456020830185612312565b61265260408301846125c1565b949350505050565b600060408201905061266f6000830185612312565b61267c60208301846125c1565b9392505050565b6000602082019050818103600083015261269d8184612321565b905092915050565b60006020820190506126ba600083018461238e565b92915050565b600060208201905081810360008301526126d98161239d565b9050919050565b600060208201905081810360008301526126f9816123c0565b9050919050565b60006020820190508181036000830152612719816123e3565b9050919050565b6000602082019050818103600083015261273981612406565b9050919050565b6000602082019050818103600083015261275981612429565b9050919050565b600060208201905081810360008301526127798161244c565b9050919050565b600060208201905081810360008301526127998161246f565b9050919050565b60006020820190506127b560008301846125c1565b92915050565b6000819050602082019050919050565b600081519050919050565b6000602082019050919050565b600082825260208201905092915050565b600082825260208201905092915050565b60006128108261296a565b915061281b8361296a565b9250827fffffffffffffffffffffffffffffffffffffffffffffffffffffffffffffffff038211156128505761284f6129bd565b5b828201905092915050565b60006128668261296a565b91506128718361296a565b925082612881576128806129ec565b5b828204905092915050565b60006128978261296a565b91506128a28361296a565b9250817fffffffffffffffffffffffffffffffffffffffffffffffffffffffffffffffff04831182151516156128db576128da6129bd565b5b828202905092915050565b60006128f18261296a565b91506128fc8361296a565b92508282101561290f5761290e6129bd565b5b828203905092915050565b60006129258261294a565b9050919050565b60006129378261294a565b9050919050565b60008115159050919050565b600073ffffffffffffffffffffffffffffffffffffffff82169050919050565b6000819050919050565b600061297f8261296a565b91507fffffffffffffffffffffffffffffffffffffffffffffffffffffffffffffffff8214156129b2576129b16129bd565b5b600182019050919050565b7f4e487b7100000000000000000000000000000000000000000000000000000000600052601160045260246000fd5b7f4e487b7100000000000000000000000000000000000000000000000000000000600052601260045260246000fd5b7f506c65617365207375626d6974207468652061736b696e67207072696365206960008201527f6e206f7264657220746f20636f6d706c65746520746865207075726368617365602082015250565b7f5072696365206d75737420626520657175616c20746f206c697374696e67507260008201527f6963650000000000000000000000000000000000000000000000000000000000602082015250565b7f546865726520697320616c7265616479206120686967686572206f722065717560008201527f616c206269640000000000000000000000000000000000000000000000000000602082015250565b7f5468652061756374696f6e2068617320616c726561647920656e646564000000600082015250565b7f5468652061756374696f6e20686173206e6f7420656e64656420796574000000600082015250565b7f5265656e7472616e637947756172643a207265656e7472616e742063616c6c00600082015250565b7f5072696365206d757374206265206174206c6561737420312077656900000000600082015250565b612bb58161291a565b8114612bc057600080fd5b50565b612bcc8161293e565b8114612bd757600080fd5b50565b612be38161296a565b8114612bee57600080fd5b5056fea26469706673582212200f295265899006bcb74f262325ef7d5380998885e6df66f70a9989225c9573ef64736f6c63430008020033",
  "linkReferences": {},
  "deployedLinkReferences": {}
}